{
  "address": "0xD4e1E1e25129811Fe6F994D9F3a79425AF877729",
  "abi": [
    {
      "inputs": [
        {
          "internalType": "address[]",
          "name": "_owners",
          "type": "address[]"
        },
        {
          "internalType": "uint8",
          "name": "_required",
          "type": "uint8"
        }
      ],
      "stateMutability": "nonpayable",
      "type": "constructor"
    },
    {
      "anonymous": false,
      "inputs": [
        {
          "indexed": true,
          "internalType": "address",
          "name": "sender",
          "type": "address"
        },
        {
          "indexed": true,
          "internalType": "uint256",
          "name": "transactionId",
          "type": "uint256"
        }
      ],
      "name": "ApprovalRevoked",
      "type": "event"
    },
    {
      "anonymous": false,
      "inputs": [
        {
          "indexed": true,
          "internalType": "address",
          "name": "sender",
          "type": "address"
        },
        {
          "indexed": false,
          "internalType": "uint256",
          "name": "value",
          "type": "uint256"
        }
      ],
      "name": "Deposited",
      "type": "event"
    },
    {
      "anonymous": false,
      "inputs": [
        {
          "indexed": true,
          "internalType": "uint256",
          "name": "transactionId",
          "type": "uint256"
        }
      ],
      "name": "ExecutionFailed",
      "type": "event"
    },
    {
      "anonymous": false,
      "inputs": [
        {
          "indexed": true,
          "internalType": "address",
          "name": "owner",
          "type": "address"
        }
      ],
      "name": "NewOwnerAdded",
      "type": "event"
    },
    {
      "anonymous": false,
      "inputs": [
        {
          "indexed": true,
          "internalType": "address",
          "name": "owner",
          "type": "address"
        }
      ],
      "name": "OwnerRemoval",
      "type": "event"
    },
    {
      "anonymous": false,
      "inputs": [
        {
          "indexed": false,
          "internalType": "uint256",
          "name": "required",
          "type": "uint256"
        }
      ],
      "name": "RequirementChanged",
      "type": "event"
    },
    {
      "anonymous": false,
      "inputs": [
        {
          "indexed": true,
          "internalType": "address",
          "name": "sender",
          "type": "address"
        },
        {
          "indexed": true,
          "internalType": "contract IERC20",
          "name": "token",
          "type": "address"
        },
        {
          "indexed": false,
          "internalType": "uint256",
          "name": "value",
          "type": "uint256"
        }
      ],
      "name": "TokenDeposited",
      "type": "event"
    },
    {
      "anonymous": false,
      "inputs": [
        {
          "indexed": true,
          "internalType": "address",
          "name": "sender",
          "type": "address"
        },
        {
          "indexed": true,
          "internalType": "uint256",
          "name": "transactionId",
          "type": "uint256"
        }
      ],
      "name": "TransactionApproved",
      "type": "event"
    },
    {
      "anonymous": false,
      "inputs": [
        {
          "indexed": true,
          "internalType": "uint256",
          "name": "transactionId",
          "type": "uint256"
        }
      ],
      "name": "TransactionExecuted",
      "type": "event"
    },
    {
      "anonymous": false,
      "inputs": [
        {
          "indexed": true,
          "internalType": "uint256",
          "name": "transactionId",
          "type": "uint256"
        }
      ],
      "name": "TransactionSubmitted",
      "type": "event"
    },
    {
      "inputs": [],
      "name": "MAX_OWNER",
      "outputs": [
        {
          "internalType": "uint8",
          "name": "",
          "type": "uint8"
        }
      ],
      "stateMutability": "view",
      "type": "function"
    },
    {
      "inputs": [
        {
          "internalType": "address",
          "name": "_owner",
          "type": "address"
        }
      ],
      "name": "addOwner",
      "outputs": [
        {
          "internalType": "uint256",
          "name": "txnId",
          "type": "uint256"
        }
      ],
      "stateMutability": "nonpayable",
      "type": "function"
    },
    {
      "inputs": [
        {
          "internalType": "uint256",
          "name": "",
          "type": "uint256"
        },
        {
          "internalType": "address",
          "name": "",
          "type": "address"
        }
      ],
      "name": "approvals",
      "outputs": [
        {
          "internalType": "bool",
          "name": "",
          "type": "bool"
        }
      ],
      "stateMutability": "view",
      "type": "function"
    },
    {
      "inputs": [
        {
          "internalType": "uint256",
          "name": "_txnId",
          "type": "uint256"
        }
      ],
      "name": "approve",
      "outputs": [],
      "stateMutability": "nonpayable",
      "type": "function"
    },
    {
      "inputs": [
        {
          "internalType": "uint8",
          "name": "_required",
          "type": "uint8"
        }
      ],
      "name": "changeRequired",
      "outputs": [
        {
          "internalType": "uint256",
          "name": "txnId",
          "type": "uint256"
        }
      ],
      "stateMutability": "nonpayable",
      "type": "function"
    },
    {
      "inputs": [
        {
          "internalType": "uint256",
          "name": "_txnId",
          "type": "uint256"
        }
      ],
      "name": "execute",
      "outputs": [
        {
          "internalType": "bool",
          "name": "success",
          "type": "bool"
        }
      ],
      "stateMutability": "nonpayable",
      "type": "function"
    },
    {
      "inputs": [
        {
          "internalType": "uint256",
          "name": "_txnId",
          "type": "uint256"
        }
      ],
      "name": "getApprovalCount",
      "outputs": [
        {
          "internalType": "uint8",
          "name": "count",
          "type": "uint8"
        }
      ],
      "stateMutability": "view",
      "type": "function"
    },
    {
      "inputs": [
        {
          "internalType": "bool",
          "name": "_pending",
          "type": "bool"
        },
        {
          "internalType": "bool",
          "name": "_executed",
          "type": "bool"
        }
      ],
      "name": "getTransactionCount",
      "outputs": [
        {
          "internalType": "uint256",
          "name": "count",
          "type": "uint256"
        }
      ],
      "stateMutability": "view",
      "type": "function"
    },
    {
      "inputs": [
        {
          "internalType": "uint256",
          "name": "_txnId",
          "type": "uint256"
        }
      ],
      "name": "isConfirmed",
      "outputs": [
        {
          "internalType": "bool",
          "name": "status",
          "type": "bool"
        }
      ],
      "stateMutability": "view",
      "type": "function"
    },
    {
      "inputs": [],
      "name": "ownerCount",
      "outputs": [
        {
          "internalType": "uint8",
          "name": "",
          "type": "uint8"
        }
      ],
      "stateMutability": "view",
      "type": "function"
    },
    {
      "inputs": [
        {
          "internalType": "address",
          "name": "",
          "type": "address"
        }
      ],
      "name": "owners",
      "outputs": [
        {
          "internalType": "bool",
          "name": "",
          "type": "bool"
        }
      ],
      "stateMutability": "view",
      "type": "function"
    },
    {
      "inputs": [
        {
          "internalType": "address",
          "name": "_owner",
          "type": "address"
        }
      ],
      "name": "removeOwner",
      "outputs": [
        {
          "internalType": "uint256",
          "name": "txnId",
          "type": "uint256"
        }
      ],
      "stateMutability": "nonpayable",
      "type": "function"
    },
    {
      "inputs": [
        {
          "internalType": "address",
          "name": "_owner",
          "type": "address"
        },
        {
          "internalType": "address",
          "name": "_newOwner",
          "type": "address"
        }
      ],
      "name": "replaceOwner",
      "outputs": [
        {
          "internalType": "uint256",
          "name": "txnId",
          "type": "uint256"
        }
      ],
      "stateMutability": "nonpayable",
      "type": "function"
    },
    {
      "inputs": [],
      "name": "required",
      "outputs": [
        {
          "internalType": "uint8",
          "name": "",
          "type": "uint8"
        }
      ],
      "stateMutability": "view",
      "type": "function"
    },
    {
      "inputs": [
        {
          "internalType": "uint256",
          "name": "_txnId",
          "type": "uint256"
        }
      ],
      "name": "revokeApproval",
      "outputs": [],
      "stateMutability": "nonpayable",
      "type": "function"
    },
    {
      "inputs": [],
      "name": "transactionCount",
      "outputs": [
        {
          "internalType": "uint256",
          "name": "",
          "type": "uint256"
        }
      ],
      "stateMutability": "view",
      "type": "function"
    },
    {
      "inputs": [
        {
          "internalType": "uint256",
          "name": "",
          "type": "uint256"
        }
      ],
      "name": "transactions",
      "outputs": [
        {
          "internalType": "enum MultiSigWallet.Kind",
          "name": "kind",
          "type": "uint8"
        },
        {
          "internalType": "address",
          "name": "to",
          "type": "address"
        },
        {
          "internalType": "uint256",
          "name": "value",
          "type": "uint256"
        },
        {
          "internalType": "bytes",
          "name": "data",
          "type": "bytes"
        },
        {
          "internalType": "address",
          "name": "token",
          "type": "address"
        },
        {
          "internalType": "uint8",
          "name": "approval",
          "type": "uint8"
        },
        {
          "internalType": "bool",
          "name": "executed",
          "type": "bool"
        }
      ],
      "stateMutability": "view",
      "type": "function"
    },
    {
      "inputs": [
        {
          "internalType": "address payable",
          "name": "_to",
          "type": "address"
        },
        {
          "internalType": "uint256",
          "name": "_value",
          "type": "uint256"
        },
        {
          "internalType": "bytes",
          "name": "_data",
          "type": "bytes"
        }
      ],
      "name": "transfer",
      "outputs": [
        {
          "internalType": "uint256",
          "name": "txnId",
          "type": "uint256"
        }
      ],
      "stateMutability": "nonpayable",
      "type": "function"
    },
    {
      "inputs": [
        {
          "internalType": "contract IERC20",
          "name": "_token",
          "type": "address"
        },
        {
          "internalType": "address payable",
          "name": "_to",
          "type": "address"
        },
        {
          "internalType": "uint256",
          "name": "_value",
          "type": "uint256"
        },
        {
          "internalType": "bytes",
          "name": "_data",
          "type": "bytes"
        }
      ],
      "name": "transferToken",
      "outputs": [
        {
          "internalType": "uint256",
          "name": "txnId",
          "type": "uint256"
        }
      ],
      "stateMutability": "nonpayable",
      "type": "function"
    },
    {
      "stateMutability": "payable",
      "type": "receive"
    }
  ],
  "transactionHash": "0x5a5883dcd365da0b6030aff8223f9e9b197f7ec5c74e2f9e88fe1875da9e1d27",
  "args": [
    [
      "0x81D90dA059968464661280F4c6FDb71435B577a2",
      "0x4861a4D127A206Af02f427aF515286E2FD3D7B03",
      "0xE550E31479c214b5A61C15676C7f40521d1bf498"
    ],
    2
  ],
  "solcInputHash": "1b00e0b928430f6278a03a674d6dceb1",
  "bytecode": "0x60806040523480156200001157600080fd5b506040516200228738038062002287833981810160405260408110156200003757600080fd5b81019080805160405193929190846401000000008211156200005857600080fd5b9083019060208201858111156200006e57600080fd5b82518660208202830111640100000000821117156200008c57600080fd5b82525081516020918201928201910280838360005b83811015620000bb578181015183820152602001620000a1565b505050509190910160405250602001518351909250905081600160ff8216118015620000eb5750603260ff831611155b8015620000fe57508160ff168160ff1611155b6200013b5760405162461bcd60e51b815260040180806020018281038252602a8152602001806200225d602a913960400191505060405180910390fd5b60038054855160ff9081166101000261ff001991871660ff19909316929092171617905560005b84518160ff1610156200024e5760026000868360ff16815181106200018357fe5b6020908102919091018101516001600160a01b031682528101919091526040016000205460ff1615620001fd576040805162461bcd60e51b815260206004820152601d60248201527f696e697469616c206f776e65727320617265206475706c696361746564000000604482015290519081900360640190fd5b600160026000878460ff16815181106200021357fe5b6020908102919091018101516001600160a01b03168252810191909152604001600020805460ff191691151591909117905560010162000162565b5050505050611ffa80620002636000396000f3fe6080604052600436106101185760003560e01c8063ab2850da116100a0578063be45fd6211610064578063be45fd62146104a5578063dc8452cd1461056d578063e20056e614610582578063f9c028ec146105bd578063fe0d94c1146106905761015c565b8063ab2850da146103d9578063b1e130fc14610412578063b759f9541461043c578063b77bf60014610466578063ba7e7cab1461047b5761015c565b80637065cb48116100e75780637065cb481461024c578063726881111461027f578063784547a71461029457806388b2319d146102be5780639ace38c2146102eb5761015c565b8063022914a7146101615780630db02622146101a8578063173825d9146101d357806354741525146102185761015c565b3661015c57341561015a5760408051348152905133917f2da466a7b24304f47e87fa2e1e5a81b9831ce54fec19055ce277ca2f39ba42c4919081900360200190a25b005b600080fd5b34801561016d57600080fd5b506101946004803603602081101561018457600080fd5b50356001600160a01b03166106ba565b604080519115158252519081900360200190f35b3480156101b457600080fd5b506101bd6106cf565b6040805160ff9092168252519081900360200190f35b3480156101df57600080fd5b50610206600480360360208110156101f657600080fd5b50356001600160a01b03166106dd565b60408051918252519081900360200190f35b34801561022457600080fd5b506102066004803603604081101561023b57600080fd5b50803515159060200135151561077f565b34801561025857600080fd5b506102066004803603602081101561026f57600080fd5b50356001600160a01b03166107f9565b34801561028b57600080fd5b506101bd61095e565b3480156102a057600080fd5b50610194600480360360208110156102b757600080fd5b5035610963565b3480156102ca57600080fd5b50610206600480360360208110156102e157600080fd5b503560ff1661098d565b3480156102f757600080fd5b506103156004803603602081101561030e57600080fd5b5035610a48565b6040518088600481111561032557fe5b8152602001876001600160a01b0316815260200186815260200180602001856001600160a01b031681526020018460ff1681526020018315158152602001828103825286818151815260200191508051906020019080838360005b83811015610398578181015183820152602001610380565b50505050905090810190601f1680156103c55780820380516001836020036101000a031916815260200191505b509850505050505050505060405180910390f35b3480156103e557600080fd5b50610194600480360360408110156103fc57600080fd5b50803590602001356001600160a01b0316610b2b565b34801561041e57600080fd5b5061015a6004803603602081101561043557600080fd5b5035610b4b565b34801561044857600080fd5b5061015a6004803603602081101561045f57600080fd5b5035610cd9565b34801561047257600080fd5b50610206610e64565b34801561048757600080fd5b506101bd6004803603602081101561049e57600080fd5b5035610e6a565b3480156104b157600080fd5b50610206600480360360608110156104c857600080fd5b6001600160a01b03823516916020810135918101906060810160408201356401000000008111156104f857600080fd5b82018360208201111561050a57600080fd5b8035906020019184600183028401116401000000008311171561052c57600080fd5b91908080601f016020809104026020016040519081016040528093929190818152602001838380828437600092019190915250929550610e89945050505050565b34801561057957600080fd5b506101bd610f37565b34801561058e57600080fd5b50610206600480360360408110156105a557600080fd5b506001600160a01b0381358116916020013516610f40565b3480156105c957600080fd5b50610206600480360360808110156105e057600080fd5b6001600160a01b0382358116926020810135909116916040820135919081019060808101606082013564010000000081111561061b57600080fd5b82018360208201111561062d57600080fd5b8035906020019184600183028401116401000000008311171561064f57600080fd5b91908080601f01602080910402602001604051908101604052809392919081815260200183838082843760009201919091525092955061109c945050505050565b34801561069c57600080fd5b50610194600480360360208110156106b357600080fd5b50356111c5565b60026020526000908152604090205460ff1681565b600354610100900460ff1681565b6001600160a01b038116600090815260026020526040812054829060ff166107365760405162461bcd60e51b8152600401808060200182810382526025815260200180611f2a6025913960400191505060405180910390fd5b61076e600360008060008760405160200180826001600160a01b03168152602001915050604051602081830303815290604052611918565b915061077982610cd9565b50919050565b6000805b6004548110156107f2578380156107b35750600081815260208190526040902060030154600160a81b900460ff16155b806107de57508280156107de5750600081815260208190526040902060030154600160a81b900460ff165b156107ea576001909101905b600101610783565b5092915050565b6000816001600160a01b038116610845576040805162461bcd60e51b815260206004820152601c6024820152600080516020611e96833981519152604482015290519081900360640190fd5b6001600160a01b038316600090815260026020526040902054839060ff161561089f5760405162461bcd60e51b8152600401808060200182810382526021815260200180611fa46021913960400191505060405180910390fd5b6003546001610100820460ff9081168201921690811180156108c55750603260ff831611155b80156108d757508160ff168160ff1611155b6109125760405162461bcd60e51b815260040180806020018281038252602a815260200180611eb6602a913960400191505060405180910390fd5b61094a600260008060008a60405160200180826001600160a01b03168152602001915050604051602081830303815290604052611918565b945061095585610cd9565b50505050919050565b603281565b60038054600092835260208390526040909220015460ff918216600160a01b909104909116101590565b6000600360019054906101000a900460ff168260018160ff161180156109b75750603260ff831611155b80156109c957508160ff168160ff1611155b610a045760405162461bcd60e51b815260040180806020018281038252602a815260200180611eb6602a913960400191505060405180910390fd5b610a366001600080600088604051602001808260ff168152602001915050604051602081830303815290604052611918565b9250610a4183610cd9565b5050919050565b6000602081815291815260409081902080546001808301546002808501805487516101009582161586026000190190911692909204601f810189900489028301890190975286825260ff851697939094046001600160a01b0316959194939092909190830182828015610afc5780601f10610ad157610100808354040283529160200191610afc565b820191906000526020600020905b815481529060010190602001808311610adf57829003601f168201915b505050600390930154919250506001600160a01b0381169060ff600160a01b8204811691600160a81b90041687565b600160209081526000928352604080842090915290825290205460ff1681565b3360008181526002602052604090205460ff16610b995760405162461bcd60e51b8152600401808060200182810382526025815260200180611f2a6025913960400191505060405180910390fd5b60008281526001602090815260408083203380855292529091205483919060ff16610bf55760405162461bcd60e51b815260040180806020018281038252602f815260200180611e41602f913960400191505060405180910390fd5b6000848152602081905260409020600301548490600160a81b900460ff1615610c5f576040805162461bcd60e51b81526020600482015260176024820152761d1c985b9cd858dd1a5bdb881a5cc8195e1958dd5d1959604a1b604482015290519081900360640190fd5b600085815260208181526040808320600301805460001960ff600160a01b808404821692909201160260ff60a01b1990911617905560018252808320338085529252808320805460ff191690555187927f3e776e19fc0f05c1b8270744b61c5729d5d1a5d8dded1bfb81e3979e257edd5991a35050505050565b3360008181526002602052604090205460ff16610d275760405162461bcd60e51b8152600401808060200182810382526025815260200180611f2a6025913960400191505060405180910390fd5b816004548110610d7e576040805162461bcd60e51b815260206004820152601860248201527f7472616e73616374696f6e206973206e6f742065786973740000000000000000604482015290519081900360640190fd5b60008381526001602090815260408083203380855292529091205484919060ff1615610ddb5760405162461bcd60e51b815260040180806020018281038252602b815260200180611f4f602b913960400191505060405180910390fd5b6000858152602081815260408083206003018054600160ff600160a01b808404821683019091160260ff60a01b1990921691909117909155808352818420338086529352818420805460ff191690911790555187927f7b19c08b12f940ea76949b68d355070966056a862ad2c1aa6676ecbcc9538a6191a3610e5c856111c5565b505050505050565b60045481565b600090815260208190526040902060030154600160a01b900460ff1690565b6000836001600160a01b038116610ed5576040805162461bcd60e51b815260206004820152601c6024820152600080516020611e96833981519152604482015290519081900360640190fd5b8380471015610f155760405162461bcd60e51b8152600401808060200182810382526022815260200180611f086022913960400191505060405180910390fd5b610f23600080888888611918565b9250610f2e83610cd9565b50509392505050565b60035460ff1681565b6000816001600160a01b038116610f8c576040805162461bcd60e51b815260206004820152601c6024820152600080516020611e96833981519152604482015290519081900360640190fd5b6001600160a01b038416600090815260026020526040902054849060ff16610fe55760405162461bcd60e51b8152600401808060200182810382526025815260200180611f2a6025913960400191505060405180910390fd5b6001600160a01b038416600090815260026020526040902054849060ff161561103f5760405162461bcd60e51b8152600401808060200182810382526021815260200180611fa46021913960400191505060405180910390fd5b611088600460008060008a8a60405160200180836001600160a01b03168152602001826001600160a01b0316815260200192505050604051602081830303815290604052611918565b935061109384610cd9565b50505092915050565b6000836001600160a01b0381166110e8576040805162461bcd60e51b815260206004820152601c6024820152600080516020611e96833981519152604482015290519081900360640190fd5b858480826001600160a01b03166370a08231306040518263ffffffff1660e01b815260040180826001600160a01b0316815260200191505060206040518083038186803b15801561113857600080fd5b505afa15801561114c573d6000803e3d6000fd5b505050506040513d602081101561116257600080fd5b505110156111a15760405162461bcd60e51b8152600401808060200182810382526028815260200180611ee06028913960400191505060405180910390fd5b6111af600089898989611918565b93506111ba84610cd9565b505050949350505050565b3360008181526002602052604081205490919060ff166112165760405162461bcd60e51b8152600401808060200182810382526025815260200180611f2a6025913960400191505060405180910390fd5b60008381526001602090815260408083203380855292529091205484919060ff166112725760405162461bcd60e51b815260040180806020018281038252602f815260200180611e41602f913960400191505060405180910390fd5b6000858152602081905260409020600301548590600160a81b900460ff16156112dc576040805162461bcd60e51b81526020600482015260176024820152761d1c985b9cd858dd1a5bdb881a5cc8195e1958dd5d1959604a1b604482015290519081900360640190fd5b6112e586610963565b156109555760008681526020819052604090206001815460ff16600481111561130a57fe5b14156113ff57600281810180546040805160206001841615610100026000190190931694909404601f8101839004830285018301909152808452908301828280156113965780601f1061136b57610100808354040283529160200191611396565b820191906000526020600020905b81548152906001019060200180831161137957829003601f168201915b505050505080602001905160208110156113af57600080fd5b50516003805460ff191660ff92831617908190556040805191909216815290517facbdb084c721332ac59f9b8e392196c9eb0e4932862da8eb9beaf0dad4f550da916020908290030190a16118c3565b6002815460ff16600481111561141157fe5b141561153657600281810180546040805160206001841615610100026000190190931694909404601f810183900483028501830190915280845260009392918301828280156114a15780601f10611476576101008083540402835291602001916114a1565b820191906000526020600020905b81548152906001019060200180831161148457829003601f168201915b505050505080602001905160208110156114ba57600080fd5b50516001600160a01b0381166000818152600260205260408082208054600160ff1990911681179091556003805461ff0019811660ff610100928390048116909401909316029190911790555192935090917f6e4e2a7c0e1576d48aeabd633d094f622d4f046286fec8b9045dd7f5c9fb087d9190a2506118c3565b6003815460ff16600481111561154857fe5b14156116c657600281810180546040805160206001841615610100026000190190931694909404601f810183900483028501830190915280845260009392918301828280156115d85780601f106115ad576101008083540402835291602001916115d8565b820191906000526020600020905b8154815290600101906020018083116115bb57829003601f168201915b505050505080602001905160208110156115f157600080fd5b50516001600160a01b038116600081815260026020526040808220805460ff191690556003805461ff0019811660ff61010092839004811660001901169091021790555192935090917f8001553a916ef2f495d26a907cc54d96ed840d7bda71e73194bf5a9df7a76b909190a260035460ff61010082048116911611156116c0576003805460ff19811660ff6101009092048216179182905560408051929091168252517facbdb084c721332ac59f9b8e392196c9eb0e4932862da8eb9beaf0dad4f550da9181900360200190a15b506118c3565b6004815460ff1660048111156116d857fe5b141561182d5760028082018054604080516020601f6000196101006001871615020190941695909504928301859004850281018501909152818152600093849391929083018282801561176c5780601f106117415761010080835404028352916020019161176c565b820191906000526020600020905b81548152906001019060200180831161174f57829003601f168201915b5050505050806020019051604081101561178557600080fd5b5080516020918201516001600160a01b03808316600081815260029095526040808620805460ff19908116909155928416865280862080549093166001179092559051929550909350917f8001553a916ef2f495d26a907cc54d96ed840d7bda71e73194bf5a9df7a76b9091a26040516001600160a01b038216907f6e4e2a7c0e1576d48aeabd633d094f622d4f046286fec8b9045dd7f5c9fb087d90600090a250506118c3565b6000815460ff16600481111561183f57fe5b14156118c35760038101546001600160a01b031661189857805460018201546040516101009092046001600160a01b0316916108fc82150291906000818181858888f193505050501580156116c0573d6000803e3d6000fd5b8054600182015460038301546118c3926001600160a01b039182169261010090910490911690611a79565b60038101805460ff60a81b1916600160a81b17905560405187907f15ed165a284872ea7017f03df402a0cadfbfab588320ffaf83f160c2f82781c790600090a260030154600160a81b900460ff169450610955565b600480546001810182556040805160e0810190915290918190889081111561193c57fe5b81526001600160a01b038087166020808401919091526040808401889052606084018790529189166080840152600060a0840181905260c0909301839052848352829052902081518154829060ff1916600183600481111561199a57fe5b021790555060208281015182546001600160a01b0390911661010002610100600160a81b031990911617825560408301516001830155606083015180516119e79260028501920190611d9f565b5060808201516003909101805460a084015160c0909401511515600160a81b0260ff60a81b1960ff909516600160a01b0260ff60a01b196001600160a01b039095166001600160a01b03199093169290921793909316179290921617905560405181907fd0b5d9eac097410294ec9f2cee7cd185cf31ab46babf3dfdbeac8b222b03f2d190600090a295945050505050565b604080516001600160a01b038416602482015260448082018490528251808303909101815260649091019091526020810180516001600160e01b031663a9059cbb60e01b179052611acb908490611ad0565b505050565b6000611b25826040518060400160405280602081526020017f5361666545524332303a206c6f772d6c6576656c2063616c6c206661696c6564815250856001600160a01b0316611b819092919063ffffffff16565b805190915015611acb57808060200190516020811015611b4457600080fd5b5051611acb5760405162461bcd60e51b815260040180806020018281038252602a815260200180611f7a602a913960400191505060405180910390fd5b6060611b908484600085611b9a565b90505b9392505050565b606082471015611bdb5760405162461bcd60e51b8152600401808060200182810382526026815260200180611e706026913960400191505060405180910390fd5b611be485611cf5565b611c35576040805162461bcd60e51b815260206004820152601d60248201527f416464726573733a2063616c6c20746f206e6f6e2d636f6e7472616374000000604482015290519081900360640190fd5b600080866001600160a01b031685876040518082805190602001908083835b60208310611c735780518252601f199092019160209182019101611c54565b6001836020036101000a03801982511681845116808217855250505050505090500191505060006040518083038185875af1925050503d8060008114611cd5576040519150601f19603f3d011682016040523d82523d6000602084013e611cda565b606091505b5091509150611cea828286611cfb565b979650505050505050565b3b151590565b60608315611d0a575081611b93565b825115611d1a5782518084602001fd5b8160405162461bcd60e51b81526004018080602001828103825283818151815260200191508051906020019080838360005b83811015611d64578181015183820152602001611d4c565b50505050905090810190601f168015611d915780820380516001836020036101000a031916815260200191505b509250505060405180910390fd5b828054600181600116156101000203166002900490600052602060002090601f016020900481019282611dd55760008555611e1b565b82601f10611dee57805160ff1916838001178555611e1b565b82800160010185558215611e1b579182015b82811115611e1b578251825591602001919060010190611e00565b50611e27929150611e2b565b5090565b5b80821115611e275760008155600101611e2c56fe7472616e73616374696f6e20686173206e6f74206265656e20617070726f7665642062792074686973206f776e6572416464726573733a20696e73756666696369656e742062616c616e636520666f722063616c6c746869732061646472657373206973207a65726f206164647265737300000000726571756972656420616e64206f776e657220636f756e74206973206e6f742073756666696369656e7442455032302062616c616e6365206973206e6f7420656e6f75676820666f72207472616e7366657262616c616e6365206973206e6f7420656e6f75676820666f72207472616e73666572746869732061646472657373206973206e6f74206f6e65206f6620746865206f776e6572737472616e73616374696f6e20686173206265656e20617070726f7665642062792074686973206f776e65725361666545524332303a204552433230206f7065726174696f6e20646964206e6f742073756363656564746869732061646472657373206973206f6e65206f6620746865206f776e657273a2646970667358221220564a689df6e29c78949b879c22db078173a52a4d88961876b218cc5031e8382164736f6c63430007060033726571756972656420616e64206f776e657220636f756e74206973206e6f742073756666696369656e74",
  "devdoc": {
    "kind": "dev",
    "methods": {
      "addOwner(address)": {
        "details": "Allows to add a new owner. Transaction has to be sent by wallet.",
        "params": {
          "_owner": "Address of new owner."
        }
      },
      "approve(uint256)": {
        "details": "Allows an owner to approve a transaction.",
        "params": {
          "_txnId": "transaction ID."
        }
      },
      "changeRequired(uint8)": {
        "details": "Allows to change the number of required confirmations. Transaction has to be sent by wallet.",
        "params": {
          "_required": "Number of required confirmations."
        }
      },
      "constructor": {
        "details": "Contract constructor sets initial owners and required number of confirmations.",
        "params": {
          "_owners": "List of initial owners.",
          "_required": "Number of required confirmations."
        }
      },
      "execute(uint256)": {
        "details": "Allows anyone to execute a approved transaction.",
        "params": {
          "_txnId": "transaction ID."
        },
        "returns": {
          "success": "wether it's success"
        }
      },
      "getApprovalCount(uint256)": {
        "details": "Returns number of approvals of a transaction.",
        "params": {
          "_txnId": "transaction ID."
        },
        "returns": {
          "count": "Number of approvals."
        }
      },
      "getTransactionCount(bool,bool)": {
        "details": "Returns total number of transactions which filers are applied.",
        "params": {
          "_executed": "Include executed transactions.",
          "_pending": "Include pending transactions."
        },
        "returns": {
          "count": "Total number of transactions after filters are applied."
        }
      },
      "isConfirmed(uint256)": {
        "details": "Returns the confirmation status of a transaction.",
        "params": {
          "_txnId": "transaction ID."
        },
        "returns": {
          "status": "confirmation status."
        }
      },
      "removeOwner(address)": {
        "details": "Allows to remove an owner. Transaction has to be sent by wallet.",
        "params": {
          "_owner": "Address of owner."
        }
      },
      "replaceOwner(address,address)": {
        "details": "Allows to replace an owner with a new owner. Transaction has to be sent by wallet.",
        "params": {
          "_newOwner": "Address of new owner.",
          "_owner": "Address of owner to be replaced."
        }
      },
      "revokeApproval(uint256)": {
        "details": "Allows an owner to revoke a approval for a transaction.",
        "params": {
          "_txnId": "transaction ID."
        }
      },
      "transfer(address,uint256,bytes)": {
        "details": "Allows an owner to submit and approve a transaction.",
        "params": {
          "_data": "transaction data payload.",
          "_to": "transaction destination address",
          "_value": "transaction value in Wei."
        },
        "returns": {
          "txnId": "returns transaction ID."
        }
      },
      "transferToken(address,address,uint256,bytes)": {
        "details": "Allows an owner to submit and approve a transaction on BEP-20 tokens.",
        "params": {
          "_data": "transaction data payload.",
          "_to": "transaction destination address",
          "_token": "a BEP-20 token address",
          "_value": "transaction value in Wei."
        },
        "returns": {
          "txnId": "returns transaction ID."
        }
      }
    },
    "title": "Multisignature wallet - Allows multiple parties to agree on transactions before execution.",
    "version": 1
  },
  "userdoc": {
    "kind": "user",
    "methods": {},
    "version": 1
  },
  "storageLayout": {
    "storage": [
      {
        "astId": 1348,
        "contract": "contracts/MultiSigWallet.sol:MultiSigWallet",
        "label": "transactions",
        "offset": 0,
        "slot": "0",
        "type": "t_mapping(t_uint256,t_struct(Transaction)1341_storage)"
      },
      {
        "astId": 1354,
        "contract": "contracts/MultiSigWallet.sol:MultiSigWallet",
        "label": "approvals",
        "offset": 0,
        "slot": "1",
        "type": "t_mapping(t_uint256,t_mapping(t_address,t_bool))"
      },
      {
        "astId": 1358,
        "contract": "contracts/MultiSigWallet.sol:MultiSigWallet",
        "label": "owners",
        "offset": 0,
        "slot": "2",
        "type": "t_mapping(t_address,t_bool)"
      },
      {
        "astId": 1360,
        "contract": "contracts/MultiSigWallet.sol:MultiSigWallet",
        "label": "required",
        "offset": 0,
        "slot": "3",
        "type": "t_uint8"
      },
      {
        "astId": 1362,
        "contract": "contracts/MultiSigWallet.sol:MultiSigWallet",
        "label": "ownerCount",
        "offset": 1,
        "slot": "3",
        "type": "t_uint8"
      },
      {
        "astId": 1364,
        "contract": "contracts/MultiSigWallet.sol:MultiSigWallet",
        "label": "transactionCount",
        "offset": 0,
        "slot": "4",
        "type": "t_uint256"
      }
    ],
    "types": {
      "t_address": {
        "encoding": "inplace",
        "label": "address",
        "numberOfBytes": "20"
      },
      "t_bool": {
        "encoding": "inplace",
        "label": "bool",
        "numberOfBytes": "1"
      },
      "t_bytes_storage": {
        "encoding": "bytes",
        "label": "bytes",
        "numberOfBytes": "32"
      },
      "t_enum(Kind)1326": {
        "encoding": "inplace",
        "label": "enum MultiSigWallet.Kind",
        "numberOfBytes": "1"
      },
      "t_mapping(t_address,t_bool)": {
        "encoding": "mapping",
        "key": "t_address",
        "label": "mapping(address => bool)",
        "numberOfBytes": "32",
        "value": "t_bool"
      },
      "t_mapping(t_uint256,t_mapping(t_address,t_bool))": {
        "encoding": "mapping",
        "key": "t_uint256",
        "label": "mapping(uint256 => mapping(address => bool))",
        "numberOfBytes": "32",
        "value": "t_mapping(t_address,t_bool)"
      },
      "t_mapping(t_uint256,t_struct(Transaction)1341_storage)": {
        "encoding": "mapping",
        "key": "t_uint256",
        "label": "mapping(uint256 => struct MultiSigWallet.Transaction)",
        "numberOfBytes": "32",
        "value": "t_struct(Transaction)1341_storage"
      },
      "t_struct(Transaction)1341_storage": {
        "encoding": "inplace",
        "label": "struct MultiSigWallet.Transaction",
        "members": [
          {
            "astId": 1328,
            "contract": "contracts/MultiSigWallet.sol:MultiSigWallet",
            "label": "kind",
            "offset": 0,
            "slot": "0",
            "type": "t_enum(Kind)1326"
          },
          {
            "astId": 1330,
            "contract": "contracts/MultiSigWallet.sol:MultiSigWallet",
            "label": "to",
            "offset": 1,
            "slot": "0",
            "type": "t_address"
          },
          {
            "astId": 1332,
            "contract": "contracts/MultiSigWallet.sol:MultiSigWallet",
            "label": "value",
            "offset": 0,
            "slot": "1",
            "type": "t_uint256"
          },
          {
            "astId": 1334,
            "contract": "contracts/MultiSigWallet.sol:MultiSigWallet",
            "label": "data",
            "offset": 0,
            "slot": "2",
            "type": "t_bytes_storage"
          },
          {
            "astId": 1336,
            "contract": "contracts/MultiSigWallet.sol:MultiSigWallet",
            "label": "token",
            "offset": 0,
            "slot": "3",
            "type": "t_address"
          },
          {
            "astId": 1338,
            "contract": "contracts/MultiSigWallet.sol:MultiSigWallet",
            "label": "approval",
            "offset": 20,
            "slot": "3",
            "type": "t_uint8"
          },
          {
            "astId": 1340,
            "contract": "contracts/MultiSigWallet.sol:MultiSigWallet",
            "label": "executed",
            "offset": 21,
            "slot": "3",
            "type": "t_bool"
          }
        ],
        "numberOfBytes": "128"
      },
      "t_uint256": {
        "encoding": "inplace",
        "label": "uint256",
        "numberOfBytes": "32"
      },
      "t_uint8": {
        "encoding": "inplace",
        "label": "uint8",
        "numberOfBytes": "1"
      }
    }
  }
}