{
  "address": "0x081b82B51Cb1AC8165BEA504f534233B32371a2c",
  "abi": [
    {
      "inputs": [
        {
          "internalType": "address[]",
          "name": "_owners",
          "type": "address[]"
        },
        {
          "internalType": "uint8",
          "name": "_required",
          "type": "uint8"
        }
      ],
      "stateMutability": "nonpayable",
      "type": "constructor"
    },
    {
      "anonymous": false,
      "inputs": [
        {
          "indexed": false,
          "internalType": "address",
          "name": "owner",
          "type": "address"
        }
      ],
      "name": "AddedOwner",
      "type": "event"
    },
    {
      "anonymous": false,
      "inputs": [
        {
          "indexed": true,
          "internalType": "address",
          "name": "sender",
          "type": "address"
        },
        {
          "indexed": true,
          "internalType": "uint256",
          "name": "transactionId",
          "type": "uint256"
        }
      ],
      "name": "ApprovalRevoked",
      "type": "event"
    },
    {
      "anonymous": false,
      "inputs": [
        {
          "indexed": false,
          "internalType": "uint8",
          "name": "threshold",
          "type": "uint8"
        }
      ],
      "name": "ChangedThreshold",
      "type": "event"
    },
    {
      "anonymous": false,
      "inputs": [
        {
          "indexed": true,
          "internalType": "uint256",
          "name": "transactionId",
          "type": "uint256"
        }
      ],
      "name": "ExecutionFailed",
      "type": "event"
    },
    {
      "anonymous": false,
      "inputs": [
        {
          "indexed": true,
          "internalType": "address",
          "name": "sender",
          "type": "address"
        },
        {
          "indexed": false,
          "internalType": "uint256",
          "name": "value",
          "type": "uint256"
        }
      ],
      "name": "Received",
      "type": "event"
    },
    {
      "anonymous": false,
      "inputs": [
        {
          "indexed": false,
          "internalType": "address",
          "name": "owner",
          "type": "address"
        }
      ],
      "name": "RemovedOwner",
      "type": "event"
    },
    {
      "anonymous": false,
      "inputs": [
        {
          "indexed": true,
          "internalType": "address",
          "name": "sender",
          "type": "address"
        },
        {
          "indexed": true,
          "internalType": "uint256",
          "name": "transactionId",
          "type": "uint256"
        }
      ],
      "name": "TransactionApproved",
      "type": "event"
    },
    {
      "anonymous": false,
      "inputs": [
        {
          "indexed": true,
          "internalType": "uint256",
          "name": "transactionId",
          "type": "uint256"
        }
      ],
      "name": "TransactionExecuted",
      "type": "event"
    },
    {
      "anonymous": false,
      "inputs": [
        {
          "indexed": true,
          "internalType": "uint256",
          "name": "transactionId",
          "type": "uint256"
        }
      ],
      "name": "TransactionSubmitted",
      "type": "event"
    },
    {
      "inputs": [],
      "name": "MAX_OWNER",
      "outputs": [
        {
          "internalType": "uint8",
          "name": "",
          "type": "uint8"
        }
      ],
      "stateMutability": "view",
      "type": "function"
    },
    {
      "inputs": [
        {
          "internalType": "address",
          "name": "owner",
          "type": "address"
        },
        {
          "internalType": "uint8",
          "name": "_threshold",
          "type": "uint8"
        }
      ],
      "name": "addOwnerWithThreshold",
      "outputs": [],
      "stateMutability": "nonpayable",
      "type": "function"
    },
    {
      "inputs": [
        {
          "internalType": "uint256",
          "name": "",
          "type": "uint256"
        },
        {
          "internalType": "address",
          "name": "",
          "type": "address"
        }
      ],
      "name": "approvals",
      "outputs": [
        {
          "internalType": "bool",
          "name": "",
          "type": "bool"
        }
      ],
      "stateMutability": "view",
      "type": "function"
    },
    {
      "inputs": [
        {
          "internalType": "uint256",
          "name": "_txnId",
          "type": "uint256"
        }
      ],
      "name": "approve",
      "outputs": [],
      "stateMutability": "nonpayable",
      "type": "function"
    },
    {
      "inputs": [
        {
          "internalType": "uint8",
          "name": "_threshold",
          "type": "uint8"
        }
      ],
      "name": "changeThreshold",
      "outputs": [],
      "stateMutability": "nonpayable",
      "type": "function"
    },
    {
      "inputs": [
        {
          "internalType": "address",
          "name": "owner",
          "type": "address"
        }
      ],
      "name": "checkOwner",
      "outputs": [
        {
          "internalType": "bool",
          "name": "",
          "type": "bool"
        }
      ],
      "stateMutability": "view",
      "type": "function"
    },
    {
      "inputs": [
        {
          "internalType": "uint256",
          "name": "_txnId",
          "type": "uint256"
        }
      ],
      "name": "executeTransaction",
      "outputs": [
        {
          "internalType": "bool",
          "name": "success",
          "type": "bool"
        }
      ],
      "stateMutability": "nonpayable",
      "type": "function"
    },
    {
      "inputs": [
        {
          "internalType": "uint256",
          "name": "_txnId",
          "type": "uint256"
        }
      ],
      "name": "getApprovalCount",
      "outputs": [
        {
          "internalType": "uint8",
          "name": "count",
          "type": "uint8"
        }
      ],
      "stateMutability": "view",
      "type": "function"
    },
    {
      "inputs": [],
      "name": "getOwners",
      "outputs": [
        {
          "internalType": "address[]",
          "name": "",
          "type": "address[]"
        }
      ],
      "stateMutability": "view",
      "type": "function"
    },
    {
      "inputs": [],
      "name": "getThreshold",
      "outputs": [
        {
          "internalType": "uint8",
          "name": "",
          "type": "uint8"
        }
      ],
      "stateMutability": "view",
      "type": "function"
    },
    {
      "inputs": [
        {
          "internalType": "bool",
          "name": "_pending",
          "type": "bool"
        },
        {
          "internalType": "bool",
          "name": "_executed",
          "type": "bool"
        }
      ],
      "name": "getTransactionCount",
      "outputs": [
        {
          "internalType": "uint256",
          "name": "count",
          "type": "uint256"
        }
      ],
      "stateMutability": "view",
      "type": "function"
    },
    {
      "inputs": [
        {
          "internalType": "uint256",
          "name": "_txnId",
          "type": "uint256"
        }
      ],
      "name": "isConfirmed",
      "outputs": [
        {
          "internalType": "bool",
          "name": "status",
          "type": "bool"
        }
      ],
      "stateMutability": "view",
      "type": "function"
    },
    {
      "inputs": [
        {
          "internalType": "address",
          "name": "",
          "type": "address"
        },
        {
          "internalType": "address",
          "name": "",
          "type": "address"
        },
        {
          "internalType": "uint256[]",
          "name": "",
          "type": "uint256[]"
        },
        {
          "internalType": "uint256[]",
          "name": "",
          "type": "uint256[]"
        },
        {
          "internalType": "bytes",
          "name": "",
          "type": "bytes"
        }
      ],
      "name": "onERC1155BatchReceived",
      "outputs": [
        {
          "internalType": "bytes4",
          "name": "",
          "type": "bytes4"
        }
      ],
      "stateMutability": "pure",
      "type": "function"
    },
    {
      "inputs": [
        {
          "internalType": "address",
          "name": "",
          "type": "address"
        },
        {
          "internalType": "address",
          "name": "",
          "type": "address"
        },
        {
          "internalType": "uint256",
          "name": "",
          "type": "uint256"
        },
        {
          "internalType": "uint256",
          "name": "",
          "type": "uint256"
        },
        {
          "internalType": "bytes",
          "name": "",
          "type": "bytes"
        }
      ],
      "name": "onERC1155Received",
      "outputs": [
        {
          "internalType": "bytes4",
          "name": "",
          "type": "bytes4"
        }
      ],
      "stateMutability": "pure",
      "type": "function"
    },
    {
      "inputs": [
        {
          "internalType": "address",
          "name": "",
          "type": "address"
        },
        {
          "internalType": "address",
          "name": "",
          "type": "address"
        },
        {
          "internalType": "uint256",
          "name": "",
          "type": "uint256"
        },
        {
          "internalType": "bytes",
          "name": "",
          "type": "bytes"
        }
      ],
      "name": "onERC721Received",
      "outputs": [
        {
          "internalType": "bytes4",
          "name": "",
          "type": "bytes4"
        }
      ],
      "stateMutability": "pure",
      "type": "function"
    },
    {
      "inputs": [
        {
          "internalType": "uint256",
          "name": "_txnId",
          "type": "uint256"
        }
      ],
      "name": "revokeApproval",
      "outputs": [],
      "stateMutability": "nonpayable",
      "type": "function"
    },
    {
      "inputs": [
        {
          "internalType": "enum Types.Operation",
          "name": "operation",
          "type": "uint8"
        },
        {
          "internalType": "address",
          "name": "target",
          "type": "address"
        },
        {
          "internalType": "uint256",
          "name": "value",
          "type": "uint256"
        },
        {
          "internalType": "bytes",
          "name": "data",
          "type": "bytes"
        }
      ],
      "name": "submitTransaction",
      "outputs": [
        {
          "internalType": "uint256",
          "name": "txnId",
          "type": "uint256"
        }
      ],
      "stateMutability": "nonpayable",
      "type": "function"
    },
    {
      "inputs": [
        {
          "internalType": "bytes4",
          "name": "interfaceId",
          "type": "bytes4"
        }
      ],
      "name": "supportsInterface",
      "outputs": [
        {
          "internalType": "bool",
          "name": "",
          "type": "bool"
        }
      ],
      "stateMutability": "view",
      "type": "function"
    },
    {
      "inputs": [
        {
          "internalType": "address",
          "name": "prevOwner",
          "type": "address"
        },
        {
          "internalType": "address",
          "name": "oldOwner",
          "type": "address"
        },
        {
          "internalType": "address",
          "name": "newOwner",
          "type": "address"
        }
      ],
      "name": "swapOwner",
      "outputs": [],
      "stateMutability": "nonpayable",
      "type": "function"
    },
    {
      "inputs": [
        {
          "internalType": "address",
          "name": "",
          "type": "address"
        },
        {
          "internalType": "address",
          "name": "",
          "type": "address"
        },
        {
          "internalType": "address",
          "name": "",
          "type": "address"
        },
        {
          "internalType": "uint256",
          "name": "",
          "type": "uint256"
        },
        {
          "internalType": "bytes",
          "name": "",
          "type": "bytes"
        },
        {
          "internalType": "bytes",
          "name": "",
          "type": "bytes"
        }
      ],
      "name": "tokensReceived",
      "outputs": [],
      "stateMutability": "pure",
      "type": "function"
    },
    {
      "inputs": [],
      "name": "transactionCount",
      "outputs": [
        {
          "internalType": "uint256",
          "name": "",
          "type": "uint256"
        }
      ],
      "stateMutability": "view",
      "type": "function"
    },
    {
      "inputs": [
        {
          "internalType": "uint256",
          "name": "",
          "type": "uint256"
        }
      ],
      "name": "transactions",
      "outputs": [
        {
          "internalType": "enum Types.Operation",
          "name": "operation",
          "type": "uint8"
        },
        {
          "internalType": "address",
          "name": "target",
          "type": "address"
        },
        {
          "internalType": "uint256",
          "name": "value",
          "type": "uint256"
        },
        {
          "internalType": "bytes",
          "name": "data",
          "type": "bytes"
        },
        {
          "internalType": "uint8",
          "name": "approval",
          "type": "uint8"
        },
        {
          "internalType": "bool",
          "name": "executed",
          "type": "bool"
        }
      ],
      "stateMutability": "view",
      "type": "function"
    },
    {
      "stateMutability": "payable",
      "type": "receive"
    }
  ],
  "transactionHash": "0xd4fba1f6a6908f7af27e433ca04732f74a0bc97a77db51c2572d7c6d9858a414",
  "args": [
    [
      "0x81D90dA059968464661280F4c6FDb71435B577a2",
      "0x4861a4D127A206Af02f427aF515286E2FD3D7B03",
      "0xE550E31479c214b5A61C15676C7f40521d1bf498"
    ],
    2
  ],
  "solcInputHash": "fdd8878c62e3f13c5abfaed3bdfe2c15",
  "bytecode": "0x60806040523480156200001157600080fd5b5060405162001f4138038062001f41833981810160405260408110156200003757600080fd5b81019080805160405193929190846401000000008211156200005857600080fd5b9083019060208201858111156200006e57600080fd5b82518660208202830111640100000000821117156200008c57600080fd5b82525081516020918201928201910280838360005b83811015620000bb578181015183820152602001620000a1565b505050509190910160405250602001519150620000db90508282620000e3565b5050620003af565b60025460ff16156200013c576040805162461bcd60e51b815260206004820152601760248201527f63616e206f6e6c792062652063616c6c6564206f6e6365000000000000000000604482015290519081900360640190fd5b81518160ff16111562000196576040805162461bcd60e51b815260206004820152601d60248201527f7468726573686f6c64206973206d6f7265207468616e206f776e657273000000604482015290519081900360640190fd5b60018160ff161015620001e5576040805162461bcd60e51b815260206004820152601260248201527130ba103632b0b9ba1037b7329037bbb732b960711b604482015290519081900360640190fd5b600160005b8351811015620003685760008482815181106200020357fe5b6020026020010151905060006001600160a01b0316816001600160a01b0316141580156200023a57506001600160a01b0381163014155b8015620002595750826001600160a01b0316816001600160a01b031614155b80156200027057506001600160a01b038116600114155b620002c2576040805162461bcd60e51b815260206004820152601960248201527f6e6f7420616c6c6f776564206f776e6572206164647265737300000000000000604482015290519081900360640190fd5b6001600160a01b03818116600090815260208190526040902054161562000330576040805162461bcd60e51b815260206004820152601760248201527f6475706c6963617465206f776e65722061646472657373000000000000000000604482015290519081900360640190fd5b6001600160a01b03928316600090815260208190526040902080546001600160a01b03191693821693909317909255600101620001ea565b506001600160a01b03166000908152602081905260409020805460016001600160a01b0319909116811790915591519091556002805460ff191660ff909216919091179055565b611b8280620003bf6000396000f3fe6080604052600436106101385760003560e01c8063b759f954116100ab578063bc197c811161006f578063bc197c8114610752578063e0e3671c14610886578063e318b52b146108b9578063e75235b8146108fe578063ee22610b14610913578063f23a6e611461093d57610175565b8063b759f95414610680578063b77bf600146106aa578063b7f3358d146106bf578063b91a667f146106ec578063ba7e7cab1461072857610175565b8063784547a7116100fd578063784547a7146103e05780638dbcc2e01461040a5780639ace38c2146104da578063a0e67e2b146105b8578063ab2850da1461061d578063b1e130fc1461065657610175565b806223de291461017a57806301ffc9a71461026f578063150b7a02146102b7578063547415251461036f57806372688111146103b557610175565b366101755760408051348152905133917f88a5966d370b9919b20f3e2c13ff65706f196a4e32cc2c12bf57088f88525874919081900360200190a2005b600080fd5b34801561018657600080fd5b5061026d600480360360c081101561019d57600080fd5b6001600160a01b03823581169260208101358216926040820135909216916060820135919081019060a081016080820135600160201b8111156101df57600080fd5b8201836020820111156101f157600080fd5b803590602001918460018302840111600160201b8311171561021257600080fd5b919390929091602081019035600160201b81111561022f57600080fd5b82018360208201111561024157600080fd5b803590602001918460018302840111600160201b8311171561026257600080fd5b5090925090506109dd565b005b34801561027b57600080fd5b506102a36004803603602081101561029257600080fd5b50356001600160e01b0319166109e7565b604080519115158252519081900360200190f35b3480156102c357600080fd5b50610352600480360360808110156102da57600080fd5b6001600160a01b03823581169260208101359091169160408201359190810190608081016060820135600160201b81111561031457600080fd5b82018360208201111561032657600080fd5b803590602001918460018302840111600160201b8311171561034757600080fd5b509092509050610a39565b604080516001600160e01b03199092168252519081900360200190f35b34801561037b57600080fd5b506103a36004803603604081101561039257600080fd5b508035151590602001351515610a4b565b60408051918252519081900360200190f35b3480156103c157600080fd5b506103ca610ac3565b6040805160ff9092168252519081900360200190f35b3480156103ec57600080fd5b506102a36004803603602081101561040357600080fd5b5035610ac8565b34801561041657600080fd5b506103a36004803603608081101561042d57600080fd5b60ff823516916001600160a01b036020820135169160408201359190810190608081016060820135600160201b81111561046657600080fd5b82018360208201111561047857600080fd5b803590602001918460018302840111600160201b8311171561049957600080fd5b91908080601f016020809104026020016040519081016040528093929190818152602001838380828437600092019190915250929550610af8945050505050565b3480156104e657600080fd5b50610504600480360360208110156104fd57600080fd5b5035610b19565b6040518087600181111561051457fe5b8152602001866001600160a01b03168152602001858152602001806020018460ff1681526020018315158152602001828103825285818151815260200191508051906020019080838360005b83811015610578578181015183820152602001610560565b50505050905090810190601f1680156105a55780820380516001836020036101000a031916815260200191505b5097505050505050505060405180910390f35b3480156105c457600080fd5b506105cd610bea565b60408051602080825283518183015283519192839290830191858101910280838360005b838110156106095781810151838201526020016105f1565b505050509050019250505060405180910390f35b34801561062957600080fd5b506102a36004803603604081101561064057600080fd5b50803590602001356001600160a01b0316610cc7565b34801561066257600080fd5b5061026d6004803603602081101561067957600080fd5b5035610ce7565b34801561068c57600080fd5b5061026d600480360360208110156106a357600080fd5b5035610e8a565b3480156106b657600080fd5b506103a3611026565b3480156106cb57600080fd5b5061026d600480360360208110156106e257600080fd5b503560ff1661102c565b3480156106f857600080fd5b5061026d6004803603604081101561070f57600080fd5b5080356001600160a01b0316906020013560ff16611124565b34801561073457600080fd5b506103ca6004803603602081101561074b57600080fd5b50356112d2565b34801561075e57600080fd5b50610352600480360360a081101561077557600080fd5b6001600160a01b038235811692602081013590911691810190606081016040820135600160201b8111156107a857600080fd5b8201836020820111156107ba57600080fd5b803590602001918460208302840111600160201b831117156107db57600080fd5b919390929091602081019035600160201b8111156107f857600080fd5b82018360208201111561080a57600080fd5b803590602001918460208302840111600160201b8311171561082b57600080fd5b919390929091602081019035600160201b81111561084857600080fd5b82018360208201111561085a57600080fd5b803590602001918460018302840111600160201b8311171561087b57600080fd5b5090925090506112eb565b34801561089257600080fd5b506102a3600480360360208110156108a957600080fd5b50356001600160a01b03166112ff565b3480156108c557600080fd5b5061026d600480360360608110156108dc57600080fd5b506001600160a01b038135811691602081013582169160409091013516611337565b34801561090a57600080fd5b506103ca6115dc565b34801561091f57600080fd5b506102a36004803603602081101561093657600080fd5b50356115e5565b34801561094957600080fd5b50610352600480360360a081101561096057600080fd5b6001600160a01b03823581169260208101359091169160408201359160608101359181019060a081016080820135600160201b81111561099f57600080fd5b8201836020820111156109b157600080fd5b803590602001918460018302840111600160201b831117156109d257600080fd5b50909250905061187a565b5050505050505050565b60006001600160e01b03198216630271189760e51b1480610a1857506001600160e01b03198216630a85bd0160e11b145b80610a3357506001600160e01b031982166301ffc9a760e01b145b92915050565b630a85bd0160e11b5b95945050505050565b6000805b600554811015610abc57838015610a7e575060008181526003602081905260409091200154610100900460ff16155b80610aa85750828015610aa8575060008181526003602081905260409091200154610100900460ff165b15610ab4576001909101905b600101610a4f565b5092915050565b603281565b6000610ad26115dc565b60009283526003602081905260409093209092015460ff92831692169190911015919050565b6000610b068585858561188c565b9050610b1181610e8a565b949350505050565b60036020908152600091825260409182902080546001808301546002808501805488516101009582161586026000190190911692909204601f810188900488028301880190985287825260ff851697939094046001600160a01b03169591949390929091830182828015610bce5780601f10610ba357610100808354040283529160200191610bce565b820191906000526020600020905b815481529060010190602001808311610bb157829003601f168201915b5050506003909301549192505060ff8082169161010090041686565b6060600060015467ffffffffffffffff81118015610c0757600080fd5b50604051908082528060200260200182016040528015610c31578160200160208202803683370190505b506001600090815260208190527fada5013122d395ba3c54772283fb069b10426056ef8ca54750cb9bb552a59e7d549192506001600160a01b03909116905b600154811015610cbf5781838281518110610c8757fe5b6001600160a01b0392831660209182029290920181019190915292811660009081529283905260409092205490911690600101610c70565b509091505090565b600460209081526000928352604080842090915290825290205460ff1681565b33610cf1816112ff565b610d3d576040805162461bcd60e51b81526020600482015260186024820152776973206e6f74206f6e65206f6620746865206f776e65727360401b604482015290519081900360640190fd5b60008281526004602090815260408083203380855292529091205483919060ff16610daf576040805162461bcd60e51b815260206004820152601f60248201527f6e6f74206265656e20617070726f7665642062792074686973206f776e657200604482015290519081900360640190fd5b600084815260036020819052604090912001548490610100900460ff1615610e18576040805162461bcd60e51b81526020600482015260176024820152761d1c985b9cd858dd1a5bdb881a5cc8195e1958dd5d1959604a1b604482015290519081900360640190fd5b6000858152600360208181526040808420909201805460001960ff808316919091011660ff19918216179091556004825282842033808652925282842080549091169055905187927f3e776e19fc0f05c1b8270744b61c5729d5d1a5d8dded1bfb81e3979e257edd5991a35050505050565b33610e94816112ff565b610ee0576040805162461bcd60e51b81526020600482015260186024820152776973206e6f74206f6e65206f6620746865206f776e65727360401b604482015290519081900360640190fd5b816005548110610f37576040805162461bcd60e51b815260206004820152601860248201527f7472616e73616374696f6e206973206e6f742065786973740000000000000000604482015290519081900360640190fd5b60008381526004602090815260408083203380855292529091205484919060ff1615610faa576040805162461bcd60e51b815260206004820152601f60248201527f686173206265656e20617070726f7665642062792074686973206f776e657200604482015290519081900360640190fd5b6000858152600360208181526040808420909201805460ff19808216600160ff938416810190931617909255600483528385203380875293528385208054909216179055905187927f7b19c08b12f940ea76949b68d355070966056a862ad2c1aa6676ecbcc9538a6191a361101e856115e5565b505050505050565b60055481565b611034611a21565b6001548160ff16111561108e576040805162461bcd60e51b815260206004820152601d60248201527f7468726573686f6c64206973206d6f7265207468616e206f776e657273000000604482015290519081900360640190fd5b60018160ff1610156110dc576040805162461bcd60e51b815260206004820152601260248201527130ba103632b0b9ba1037b7329037bbb732b960711b604482015290519081900360640190fd5b6002805460ff831660ff19909116811790915560408051918252517fa1a39f4ff110596455f47a4a25db50c3662a86ffdb67875e4291c2efde959f1d9181900360200190a150565b61112c611a21565b6001600160a01b0382161580159061114d57506001600160a01b0382163014155b801561116357506001600160a01b038216600114155b6111b4576040805162461bcd60e51b815260206004820152601960248201527f6e6f7420616c6c6f776564206f776e6572206164647265737300000000000000604482015290519081900360640190fd5b6001600160a01b03828116600090815260208190526040902054161561121b576040805162461bcd60e51b81526020600482015260176024820152766475706c6963617465206f776e6572206164647265737360481b604482015290519081900360640190fd5b600060208181527fada5013122d395ba3c54772283fb069b10426056ef8ca54750cb9bb552a59e7d80546001600160a01b0386811680865260408087208054939094166001600160a01b0319938416179093556001958690528354909116811790925583548401909355825190815291517f9465fa0c962cc76958e6373a993326400c1c94f8be2fe3a952adfa7f60b2ea269281900390910190a160025460ff8281169116146112ce576112ce8161102c565b5050565b6000908152600360208190526040909120015460ff1690565b63bc197c8160e01b98975050505050505050565b60006001600160a01b038216600114801590610a335750506001600160a01b0390811660009081526020819052604090205416151590565b61133f611a21565b6001600160a01b0381161580159061136057506001600160a01b0381163014155b801561137657506001600160a01b038116600114155b6113c7576040805162461bcd60e51b815260206004820152601960248201527f696e76616c6964206e6577206f776e6572206164647265737300000000000000604482015290519081900360640190fd5b6001600160a01b03818116600090815260208190526040902054161561142e576040805162461bcd60e51b81526020600482015260176024820152766475706c6963617465206f776e6572206164647265737360481b604482015290519081900360640190fd5b6001600160a01b0382161580159061145057506001600160a01b038216600114155b6114a1576040805162461bcd60e51b815260206004820152601960248201527f696e76616c6964206f6c64206f776e6572206164647265737300000000000000604482015290519081900360640190fd5b6001600160a01b03838116600090815260208190526040902054811690831614611512576040805162461bcd60e51b815260206004820152601e60248201527f6e6f7420636f72726573706f6e6420746f20746865206f6c644f776e65720000604482015290519081900360640190fd5b6001600160a01b03828116600081815260208181526040808320805487871680865283862080549289166001600160a01b0319938416179055968a16855282852080548216909717909655928490528254909416909155825191825291517ff8d49fc529812e9a7c5c50e69c20f0dccc0db8fa95c98bc58cc9a4f1c1299eaf929181900390910190a1604080516001600160a01b038316815290517f9465fa0c962cc76958e6373a993326400c1c94f8be2fe3a952adfa7f60b2ea269181900360200190a1505050565b60025460ff1690565b6000336115f1816112ff565b61163d576040805162461bcd60e51b81526020600482015260186024820152776973206e6f74206f6e65206f6620746865206f776e65727360401b604482015290519081900360640190fd5b60008381526004602090815260408083203380855292529091205484919060ff166116af576040805162461bcd60e51b815260206004820152601f60248201527f6e6f74206265656e20617070726f7665642062792074686973206f776e657200604482015290519081900360640190fd5b600085815260036020819052604090912001548590610100900460ff1615611718576040805162461bcd60e51b81526020600482015260176024820152761d1c985b9cd858dd1a5bdb881a5cc8195e1958dd5d1959604a1b604482015290519081900360640190fd5b61172186610ac8565b156118715760008681526003602090815260409182902080546001808301546002808501805488516101009582161586026000190190911692909204601f810188900488028301880190985287825294966117ed9660ff861696949095046001600160a01b031694929391928301828280156117de5780601f106117b3576101008083540402835291602001916117de565b820191906000526020600020905b8154815290600101906020018083116117c157829003601f168201915b50505050506109c45a03611a6c565b955085156118365760038101805461ff00191661010017905560405187907f15ed165a284872ea7017f03df402a0cadfbfab588320ffaf83f160c2f82781c790600090a261186f565b60038101805461ff001916905560405187907f492fd70ea712c765647b1676dbd9ea071e027174bc0cbbdb721f33658880271e90600090a25b505b50505050919050565b63f23a6e6160e01b9695505050505050565b6000836001600160a01b0381166118ea576040805162461bcd60e51b815260206004820152601c60248201527f746869732061646472657373206973207a65726f206164647265737300000000604482015290519081900360640190fd5b600560008154809291906001019190505591506040518060c0016040528087600181111561191457fe5b81526001600160a01b03871660208083019190915260408083018890526060830187905260006080840181905260a09093018390528583526003909152902081518154829060ff19166001838181111561196a57fe5b021790555060208281015182546001600160a01b0390911661010002610100600160a81b031990911617825560408301516001830155606083015180516119b79260028501920190611aab565b5060808201516003909101805460a09093015115156101000261ff001960ff90931660ff19909416939093179190911691909117905560405182907fd0b5d9eac097410294ec9f2cee7cd185cf31ab46babf3dfdbeac8b222b03f2d190600090a250949350505050565b333014611a6a576040805162461bcd60e51b81526020600482015260126024820152711c995c5d5a5c9959081cd95b198818d85b1b60721b604482015290519081900360640190fd5b565b600080866001811115611a7b57fe5b1415611a9557600080845160208601878987f19050610a42565b6000808451602086018886f49695505050505050565b828054600181600116156101000203166002900490600052602060002090601f016020900481019282611ae15760008555611b27565b82601f10611afa57805160ff1916838001178555611b27565b82800160010185558215611b27579182015b82811115611b27578251825591602001919060010190611b0c565b50611b33929150611b37565b5090565b5b80821115611b335760008155600101611b3856fea26469706673582212207f5cc530fa63aa874a621e1d5ed45745e718ee0dd80e837b2501874418e296d064736f6c63430007060033",
  "devdoc": {
    "kind": "dev",
    "methods": {
      "approve(uint256)": {
        "details": "Allows an owner to approve a transaction.",
        "params": {
          "_txnId": "transaction ID."
        }
      },
      "constructor": {
        "details": "Contract constructor sets initial owners and required number of confirmations.",
        "params": {
          "_owners": "List of initial owners.",
          "_required": "Number of required confirmations."
        }
      },
      "executeTransaction(uint256)": {
        "details": "Allows anyone to execute a approved transaction.",
        "params": {
          "_txnId": "transaction ID."
        },
        "returns": {
          "success": "wether it's success"
        }
      },
      "getApprovalCount(uint256)": {
        "details": "Returns number of approvals of a transaction.",
        "params": {
          "_txnId": "transaction ID."
        },
        "returns": {
          "count": "Number of approvals."
        }
      },
      "getTransactionCount(bool,bool)": {
        "details": "Returns total number of transactions which filers are applied.",
        "params": {
          "_executed": "Include executed transactions.",
          "_pending": "Include pending transactions."
        },
        "returns": {
          "count": "Total number of transactions after filters are applied."
        }
      },
      "isConfirmed(uint256)": {
        "details": "Returns the confirmation status of a transaction.",
        "params": {
          "_txnId": "transaction ID."
        },
        "returns": {
          "status": "confirmation status."
        }
      },
      "revokeApproval(uint256)": {
        "details": "Allows an owner to revoke a approval for a transaction.",
        "params": {
          "_txnId": "transaction ID."
        }
      },
      "submitTransaction(uint8,address,uint256,bytes)": {
        "details": "Allows an owner to submit and approve a transaction.",
        "params": {
          "data": "transaction data payload.",
          "operation": "external call operation",
          "target": "transaction destination address",
          "value": "transaction value in Wei."
        },
        "returns": {
          "txnId": "returns transaction ID."
        }
      },
      "supportsInterface(bytes4)": {
        "details": "Returns true if this contract implements the interface defined by `interfaceId`. See the corresponding https://eips.ethereum.org/EIPS/eip-165#how-interfaces-are-identified[EIP section] to learn more about how these ids are created. This function call must use less than 30 000 gas."
      }
    },
    "title": "Multisignature wallet - Allows multiple parties to agree on transactions before execution.",
    "version": 1
  },
  "userdoc": {
    "kind": "user",
    "methods": {},
    "version": 1
  },
  "storageLayout": {
    "storage": [
      {
        "astId": 3871,
        "contract": "contracts/MultiSigWallet.sol:MultiSigWallet",
        "label": "owners",
        "offset": 0,
        "slot": "0",
        "type": "t_mapping(t_address,t_address)"
      },
      {
        "astId": 3873,
        "contract": "contracts/MultiSigWallet.sol:MultiSigWallet",
        "label": "ownerCount",
        "offset": 0,
        "slot": "1",
        "type": "t_uint256"
      },
      {
        "astId": 3875,
        "contract": "contracts/MultiSigWallet.sol:MultiSigWallet",
        "label": "threshold",
        "offset": 0,
        "slot": "2",
        "type": "t_uint8"
      },
      {
        "astId": 1907,
        "contract": "contracts/MultiSigWallet.sol:MultiSigWallet",
        "label": "transactions",
        "offset": 0,
        "slot": "3",
        "type": "t_mapping(t_uint256,t_struct(Transaction)1900_storage)"
      },
      {
        "astId": 1913,
        "contract": "contracts/MultiSigWallet.sol:MultiSigWallet",
        "label": "approvals",
        "offset": 0,
        "slot": "4",
        "type": "t_mapping(t_uint256,t_mapping(t_address,t_bool))"
      },
      {
        "astId": 1915,
        "contract": "contracts/MultiSigWallet.sol:MultiSigWallet",
        "label": "transactionCount",
        "offset": 0,
        "slot": "5",
        "type": "t_uint256"
      }
    ],
    "types": {
      "t_address": {
        "encoding": "inplace",
        "label": "address",
        "numberOfBytes": "20"
      },
      "t_bool": {
        "encoding": "inplace",
        "label": "bool",
        "numberOfBytes": "1"
      },
      "t_bytes_storage": {
        "encoding": "bytes",
        "label": "bytes",
        "numberOfBytes": "32"
      },
      "t_enum(Operation)4918": {
        "encoding": "inplace",
        "label": "enum Types.Operation",
        "numberOfBytes": "1"
      },
      "t_mapping(t_address,t_address)": {
        "encoding": "mapping",
        "key": "t_address",
        "label": "mapping(address => address)",
        "numberOfBytes": "32",
        "value": "t_address"
      },
      "t_mapping(t_address,t_bool)": {
        "encoding": "mapping",
        "key": "t_address",
        "label": "mapping(address => bool)",
        "numberOfBytes": "32",
        "value": "t_bool"
      },
      "t_mapping(t_uint256,t_mapping(t_address,t_bool))": {
        "encoding": "mapping",
        "key": "t_uint256",
        "label": "mapping(uint256 => mapping(address => bool))",
        "numberOfBytes": "32",
        "value": "t_mapping(t_address,t_bool)"
      },
      "t_mapping(t_uint256,t_struct(Transaction)1900_storage)": {
        "encoding": "mapping",
        "key": "t_uint256",
        "label": "mapping(uint256 => struct MultiSigWallet.Transaction)",
        "numberOfBytes": "32",
        "value": "t_struct(Transaction)1900_storage"
      },
      "t_struct(Transaction)1900_storage": {
        "encoding": "inplace",
        "label": "struct MultiSigWallet.Transaction",
        "members": [
          {
            "astId": 1889,
            "contract": "contracts/MultiSigWallet.sol:MultiSigWallet",
            "label": "operation",
            "offset": 0,
            "slot": "0",
            "type": "t_enum(Operation)4918"
          },
          {
            "astId": 1891,
            "contract": "contracts/MultiSigWallet.sol:MultiSigWallet",
            "label": "target",
            "offset": 1,
            "slot": "0",
            "type": "t_address"
          },
          {
            "astId": 1893,
            "contract": "contracts/MultiSigWallet.sol:MultiSigWallet",
            "label": "value",
            "offset": 0,
            "slot": "1",
            "type": "t_uint256"
          },
          {
            "astId": 1895,
            "contract": "contracts/MultiSigWallet.sol:MultiSigWallet",
            "label": "data",
            "offset": 0,
            "slot": "2",
            "type": "t_bytes_storage"
          },
          {
            "astId": 1897,
            "contract": "contracts/MultiSigWallet.sol:MultiSigWallet",
            "label": "approval",
            "offset": 0,
            "slot": "3",
            "type": "t_uint8"
          },
          {
            "astId": 1899,
            "contract": "contracts/MultiSigWallet.sol:MultiSigWallet",
            "label": "executed",
            "offset": 1,
            "slot": "3",
            "type": "t_bool"
          }
        ],
        "numberOfBytes": "128"
      },
      "t_uint256": {
        "encoding": "inplace",
        "label": "uint256",
        "numberOfBytes": "32"
      },
      "t_uint8": {
        "encoding": "inplace",
        "label": "uint8",
        "numberOfBytes": "1"
      }
    }
  }
}