{
  "address": "0x5C19595831a7363b1371F2B6C857B58dEeA80E36",
  "abi": [
    {
      "inputs": [
        {
          "internalType": "address",
          "name": "upgrader",
          "type": "address"
        }
      ],
      "stateMutability": "nonpayable",
      "type": "constructor"
    },
    {
      "anonymous": false,
      "inputs": [
        {
          "indexed": false,
          "internalType": "address",
          "name": "creator",
          "type": "address"
        },
        {
          "indexed": false,
          "internalType": "address",
          "name": "wallet",
          "type": "address"
        }
      ],
      "name": "WalletCreated",
      "type": "event"
    },
    {
      "inputs": [
        {
          "internalType": "bytes",
          "name": "data",
          "type": "bytes"
        }
      ],
      "name": "createWallet",
      "outputs": [
        {
          "internalType": "address",
          "name": "wallet",
          "type": "address"
        }
      ],
      "stateMutability": "nonpayable",
      "type": "function"
    },
    {
      "inputs": [
        {
          "internalType": "address[]",
          "name": "_owners",
          "type": "address[]"
        },
        {
          "internalType": "uint8",
          "name": "_required",
          "type": "uint8"
        }
      ],
      "name": "createWallet",
      "outputs": [
        {
          "internalType": "address",
          "name": "wallet",
          "type": "address"
        }
      ],
      "stateMutability": "nonpayable",
      "type": "function"
    },
    {
      "inputs": [],
      "name": "multisigWalletBeacon",
      "outputs": [
        {
          "internalType": "address",
          "name": "",
          "type": "address"
        }
      ],
      "stateMutability": "view",
      "type": "function"
    },
    {
      "inputs": [
        {
          "internalType": "uint256",
          "name": "",
          "type": "uint256"
        }
      ],
      "name": "wallets",
      "outputs": [
        {
          "internalType": "address",
          "name": "",
          "type": "address"
        }
      ],
      "stateMutability": "view",
      "type": "function"
    }
  ],
  "transactionHash": "0xf0876125d13d63120f72909de0e5f3f04e0d14619354cd53abec8398a2a223a2",
  "args": [
    "0x4861a4D127A206Af02f427aF515286E2FD3D7B03"
  ],
  "solcInputHash": "cf1e16f7f9a4e341d478dbc8043f5301",
  "bytecode": "0x60a060405234801561001057600080fd5b506040516136c93803806136c983398101604081905261002f91610122565b600060405161003d90610108565b604051809103906000f080158015610059573d6000803e3d6000fd5b5060405161006690610115565b6001600160a01b039091168152602001604051809103906000f080158015610092573d6000803e3d6000fd5b5060405163f2fde38b60e01b81526001600160a01b0384811660048301529192509082169063f2fde38b90602401600060405180830381600087803b1580156100da57600080fd5b505af11580156100ee573d6000803e3d6000fd5b5050505060601b6001600160601b03191660805250610150565b61213d8061108283390190565b61050a806131bf83390190565b600060208284031215610133578081fd5b81516001600160a01b0381168114610149578182fd5b9392505050565b60805160601c610f0861017a6000396000818160be0152818160e501526101d70152610f086000f3fe60806040523480156200001157600080fd5b5060043610620000525760003560e01c80631733ff9e146200005757806341e4c5d0146200008a5780637ad71f7214620000a15780639651bbf914620000b8575b600080fd5b6200006e62000068366004620003b0565b620000e0565b6040516001600160a01b03909116815260200160405180910390f35b6200006e6200009b366004620002c7565b620001d2565b6200006e620000b236600462000422565b6200025f565b6200006e7f000000000000000000000000000000000000000000000000000000000000000081565b6000807f0000000000000000000000000000000000000000000000000000000000000000848460405162000114906200028a565b62000122939291906200043b565b604051809103906000f0801580156200013f573d6000803e3d6000fd5b50600080546001810182559080527f290decd9548b62a8d60345a988386fc84ba6bc95484008f6362f93160ef3e5630180546001600160a01b0319166001600160a01b0383169081179091556040805133815260208101929092529193508392507f5b03bfed1c14a02bdeceb5fa582eb1a5765fc0bc64ca0e6af4c20afc9487f081910160405180910390a15092915050565b6000807f0000000000000000000000000000000000000000000000000000000000000000632bbdea4e60e01b858560405160240162000213929190620004e1565b60408051601f198184030181529181526020820180516001600160e01b03166001600160e01b031990941693909317909252905162000252906200028a565b620001229291906200047b565b600081815481106200027057600080fd5b6000918252602090912001546001600160a01b0316905081565b610982806200055183390190565b80356001600160a01b0381168114620002b057600080fd5b919050565b803560ff81168114620002b057600080fd5b60008060408385031215620002da578182fd5b823567ffffffffffffffff80821115620002f2578384fd5b818501915085601f83011262000306578384fd5b81356020828211156200031d576200031d6200053a565b8160051b604051601f19603f830116810181811086821117156200034557620003456200053a565b604052838152828101945085830182870184018b101562000364578889fd5b8896505b8487101562000391576200037c8162000298565b86526001969096019594830194830162000368565b509650620003a39050878201620002b5565b9450505050509250929050565b60008060208385031215620003c3578182fd5b823567ffffffffffffffff80821115620003db578384fd5b818501915085601f830112620003ef578384fd5b813581811115620003fe578485fd5b86602082850101111562000410578485fd5b60209290920196919550909350505050565b60006020828403121562000434578081fd5b5035919050565b6001600160a01b03841681526040602082018190528101829052818360608301376000818301606090810191909152601f909201601f1916010192915050565b60018060a01b0383168152600060206040818401528351806040850152825b81811015620004b8578581018301518582016060015282016200049a565b81811115620004ca5783606083870101525b50601f01601f191692909201606001949350505050565b604080825283519082018190526000906020906060840190828701845b82811015620005255781516001600160a01b031684529284019290840190600101620004fe565b50505060ff9490941692019190915250919050565b634e487b7160e01b600052604160045260246000fdfe60806040526040516109823803806109828339810160408190526100229161047d565b61004d60017fa3f0ad74e5423aebfd80d3ef4346578335a9a72aeaee59ff6cb3582b35133d51610588565b60008051602061093b8339815191521461007757634e487b7160e01b600052600160045260246000fd5b6100838282600061008a565b50506105ed565b61009383610164565b6040516001600160a01b038416907f1cf3b03a6cf19fa2baba4df148e9dcabedea7f8a5c07840e207e5c089be95d3e90600090a26000825111806100d45750805b1561015f5761015d836001600160a01b0316635c60da1b6040518163ffffffff1660e01b815260040160206040518083038186803b15801561011557600080fd5b505afa158015610129573d6000803e3d6000fd5b505050506040513d601f19601f8201168201806040525081019061014d9190610463565b8361030460201b6100291760201c565b505b505050565b6101778161033060201b6100551760201c565b6101d65760405162461bcd60e51b815260206004820152602560248201527f455243313936373a206e657720626561636f6e206973206e6f74206120636f6e6044820152641d1c9858dd60da1b60648201526084015b60405180910390fd5b610259816001600160a01b0316635c60da1b6040518163ffffffff1660e01b815260040160206040518083038186803b15801561021257600080fd5b505afa158015610226573d6000803e3d6000fd5b505050506040513d601f19601f8201168201806040525081019061024a9190610463565b61033060201b6100551760201c565b6102be5760405162461bcd60e51b815260206004820152603060248201527f455243313936373a20626561636f6e20696d706c656d656e746174696f6e206960448201526f1cc81b9bdd08184818dbdb9d1c9858dd60821b60648201526084016101cd565b806102e360008051602061093b83398151915260001b61033660201b61005b1760201c565b80546001600160a01b0319166001600160a01b039290921691909117905550565b6060610329838360405180606001604052806027815260200161095b60279139610339565b9392505050565b3b151590565b90565b6060833b6103985760405162461bcd60e51b815260206004820152602660248201527f416464726573733a2064656c65676174652063616c6c20746f206e6f6e2d636f6044820152651b9d1c9858dd60d21b60648201526084016101cd565b600080856001600160a01b0316856040516103b39190610539565b600060405180830381855af49150503d80600081146103ee576040519150601f19603f3d011682016040523d82523d6000602084013e6103f3565b606091505b50909250905061040482828661040e565b9695505050505050565b6060831561041d575081610329565b82511561042d5782518084602001fd5b8160405162461bcd60e51b81526004016101cd9190610555565b80516001600160a01b038116811461045e57600080fd5b919050565b600060208284031215610474578081fd5b61032982610447565b6000806040838503121561048f578081fd5b61049883610447565b60208401519092506001600160401b03808211156104b4578283fd5b818501915085601f8301126104c7578283fd5b8151818111156104d9576104d96105d7565b604051601f8201601f19908116603f01168101908382118183101715610501576105016105d7565b81604052828152886020848701011115610519578586fd5b61052a8360208301602088016105ab565b80955050505050509250929050565b6000825161054b8184602087016105ab565b9190910192915050565b60208152600082518060208401526105748160408501602087016105ab565b601f01601f19169190910160400192915050565b6000828210156105a657634e487b7160e01b81526011600452602481fd5b500390565b60005b838110156105c65781810151838201526020016105ae565b8381111561015d5750506000910152565b634e487b7160e01b600052604160045260246000fd5b61033f806105fc6000396000f3fe60806040523661001357610011610017565b005b6100115b61002761002261005e565b610106565b565b606061004e83836040518060600160405280602781526020016102e36027913961012a565b9392505050565b3b151590565b90565b60006100917fa3f0ad74e5423aebfd80d3ef4346578335a9a72aeaee59ff6cb3582b35133d50546001600160a01b031690565b6001600160a01b0316635c60da1b6040518163ffffffff1660e01b815260040160206040518083038186803b1580156100c957600080fd5b505afa1580156100dd573d6000803e3d6000fd5b505050506040513d601f19601f82011682018060405250810190610101919061023c565b905090565b3660008037600080366000845af43d6000803e808015610125573d6000f35b3d6000fd5b6060833b61018e5760405162461bcd60e51b815260206004820152602660248201527f416464726573733a2064656c65676174652063616c6c20746f206e6f6e2d636f6044820152651b9d1c9858dd60d21b60648201526084015b60405180910390fd5b600080856001600160a01b0316856040516101a99190610263565b600060405180830381855af49150503d80600081146101e4576040519150601f19603f3d011682016040523d82523d6000602084013e6101e9565b606091505b50915091506101f9828286610203565b9695505050505050565b6060831561021257508161004e565b8251156102225782518084602001fd5b8160405162461bcd60e51b8152600401610185919061027f565b60006020828403121561024d578081fd5b81516001600160a01b038116811461004e578182fd5b600082516102758184602087016102b2565b9190910192915050565b602081526000825180602084015261029e8160408501602087016102b2565b601f01601f19169190910160400192915050565b60005b838110156102cd5781810151838201526020016102b5565b838111156102dc576000848401525b5050505056fe416464726573733a206c6f772d6c6576656c2064656c65676174652063616c6c206661696c6564a26469706673582212202a47b2fa8138f3011ece0a45caf5d4132ab559a50271fc13b16a67066df819fc64736f6c63430008040033a3f0ad74e5423aebfd80d3ef4346578335a9a72aeaee59ff6cb3582b35133d50416464726573733a206c6f772d6c6576656c2064656c65676174652063616c6c206661696c6564a2646970667358221220918a02e56103f0e4610c80e4e55577e308de3e415eea49f6a28cd6c47ebfb67264736f6c63430008040033608060405234801561001057600080fd5b5061211d806100206000396000f3fe6080604052600436106101435760003560e01c8063b1e130fc116100b6578063bc197c811161006f578063bc197c8114610427578063e0e3671c14610456578063e318b52b14610476578063e75235b814610496578063ee22610b146104ae578063f23a6e61146104ce57600080fd5b8063b1e130fc1461035d578063b759f9541461037d578063b77bf6001461039d578063b7f3358d146103b3578063b91a667f146103d3578063ba7e7cab146103f357600080fd5b806372688111116101085780637268811114610267578063784547a71461028e5780638dbcc2e0146102ae5780639ace38c2146102ce578063a0e67e2b14610300578063ab2850da1461032257600080fd5b806223de291461018457806301ffc9a7146101ab578063150b7a02146101e05780632bbdea4e14610219578063547415251461023957600080fd5b3661017f5760405134815233907f88a5966d370b9919b20f3e2c13ff65706f196a4e32cc2c12bf57088f885258749060200160405180910390a2005b600080fd5b34801561019057600080fd5b506101a961019f366004611a08565b5050505050505050565b005b3480156101b757600080fd5b506101cb6101c6366004611d45565b6104fb565b60405190151581526020015b60405180910390f35b3480156101ec57600080fd5b506102006101fb366004611b46565b61054d565b6040516001600160e01b031990911681526020016101d7565b34801561022557600080fd5b506101a9610234366004611c5b565b61055f565b34801561024557600080fd5b50610259610254366004611d1c565b610633565b6040519081526020016101d7565b34801561027357600080fd5b5061027c603281565b60405160ff90911681526020016101d7565b34801561029a57600080fd5b506101cb6102a9366004611e2a565b6106bc565b3480156102ba57600080fd5b506102596102c9366004611d6d565b6106f0565b3480156102da57600080fd5b506102ee6102e9366004611e2a565b610711565b6040516101d796959493929190611ecb565b34801561030c57600080fd5b506103156107e1565b6040516101d79190611e7e565b34801561032e57600080fd5b506101cb61033d366004611e42565b600460209081526000928352604080842090915290825290205460ff1681565b34801561036957600080fd5b506101a9610378366004611e2a565b6108eb565b34801561038957600080fd5b506101a9610398366004611e2a565b610a6e565b3480156103a957600080fd5b5061025960055481565b3480156103bf57600080fd5b506101a96103ce366004611e64565b610bed565b3480156103df57600080fd5b506101a96103ee366004611c29565b610cdb565b3480156103ff57600080fd5b5061027c61040e366004611e2a565b6000908152600360208190526040909120015460ff1690565b34801561043357600080fd5b50610200610442366004611ab0565b63bc197c8160e01b98975050505050505050565b34801561046257600080fd5b506101cb6104713660046119a5565b610e65565b34801561048257600080fd5b506101a96104913660046119c6565b610e9d565b3480156104a257600080fd5b5060025460ff1661027c565b3480156104ba57600080fd5b506101cb6104c9366004611e2a565b611102565b3480156104da57600080fd5b506102006104e9366004611bb3565b63f23a6e6160e01b9695505050505050565b60006001600160e01b03198216630271189760e51b148061052c57506001600160e01b03198216630a85bd0160e11b145b8061054757506001600160e01b031982166301ffc9a760e01b145b92915050565b630a85bd0160e11b5b95945050505050565b60025462010000900460ff1661058057600254610100900460ff1615610584565b303b155b6105ec5760405162461bcd60e51b815260206004820152602e60248201527f496e697469616c697a61626c653a20636f6e747261637420697320616c72656160448201526d191e481a5b9a5d1a585b1a5e995960921b60648201526084015b60405180910390fd5b60025462010000900460ff16158015610611576002805462ffff001916620101001790555b61061b8383611366565b801561062e576002805462ff0000191690555b505050565b6000805b6005548110156106b557838015610666575060008181526003602081905260409091200154610100900460ff16155b806106905750828015610690575060008181526003602081905260409091200154610100900460ff165b156106a3578161069f81612080565b9250505b806106ad81612080565b915050610637565b5092915050565b60006106ca60025460ff1690565b60009283526003602081905260409093209092015460ff92831692169190911015919050565b60006106fe858585856115f8565b905061070981610a6e565b949350505050565b60036020526000908152604090208054600182015460028301805460ff8416946101009094046001600160a01b031693919061074c90612045565b80601f016020809104026020016040519081016040528092919081815260200182805461077890612045565b80156107c55780601f1061079a576101008083540402835291602001916107c5565b820191906000526020600020905b8154815290600101906020018083116107a857829003601f168201915b5050506003909301549192505060ff8082169161010090041686565b6060600060015467ffffffffffffffff81111561080e57634e487b7160e01b600052604160045260246000fd5b604051908082528060200260200182016040528015610837578160200160208202803683370190505b506001600090815260208190527fada5013122d395ba3c54772283fb069b10426056ef8ca54750cb9bb552a59e7d549192506001600160a01b03909116905b6001548110156108e357818382815181106108a157634e487b7160e01b600052603260045260246000fd5b6001600160a01b0392831660209182029290920181019190915292811660009081529283905260409092205490911690806108db81612080565b915050610876565b509092915050565b336108f581610e65565b6109115760405162461bcd60e51b81526004016105e390611f72565b60008281526004602090815260408083203380855292529091205483919060ff1661097e5760405162461bcd60e51b815260206004820152601f60248201527f6e6f74206265656e20617070726f7665642062792074686973206f776e65720060448201526064016105e3565b600084815260036020819052604090912001548490610100900460ff16156109e25760405162461bcd60e51b81526020600482015260176024820152761d1c985b9cd858dd1a5bdb881a5cc8195e1958dd5d1959604a1b60448201526064016105e3565b6000858152600360208190526040822001805460ff1691610a0283612028565b825460ff9182166101009390930a9283029190920219909116179055506000858152600460209081526040808320338085529252808320805460ff191690555187927f3e776e19fc0f05c1b8270744b61c5729d5d1a5d8dded1bfb81e3979e257edd5991a35050505050565b33610a7881610e65565b610a945760405162461bcd60e51b81526004016105e390611f72565b816005548110610ae65760405162461bcd60e51b815260206004820152601860248201527f7472616e73616374696f6e206973206e6f74206578697374000000000000000060448201526064016105e3565b60008381526004602090815260408083203380855292529091205484919060ff1615610b545760405162461bcd60e51b815260206004820152601f60248201527f686173206265656e20617070726f7665642062792074686973206f776e65720060448201526064016105e3565b6000858152600360208190526040822001805460ff1691610b748361209b565b825460ff9182166101009390930a9283029190920219909116179055506000858152600460209081526040808320338085529252808320805460ff191660011790555187927f7b19c08b12f940ea76949b68d355070966056a862ad2c1aa6676ecbcc9538a6191a3610be585611102565b505050505050565b610bf56117ac565b6001548160ff161115610c4a5760405162461bcd60e51b815260206004820152601d60248201527f7468726573686f6c64206973206d6f7265207468616e206f776e65727300000060448201526064016105e3565b60018160ff161015610c935760405162461bcd60e51b815260206004820152601260248201527130ba103632b0b9ba1037b7329037bbb732b960711b60448201526064016105e3565b6002805460ff191660ff83169081179091556040519081527fa1a39f4ff110596455f47a4a25db50c3662a86ffdb67875e4291c2efde959f1d9060200160405180910390a150565b610ce36117ac565b6001600160a01b03821615801590610d0457506001600160a01b0382163014155b8015610d1a57506001600160a01b038216600114155b610d625760405162461bcd60e51b81526020600482015260196024820152786e6f7420616c6c6f776564206f776e6572206164647265737360381b60448201526064016105e3565b6001600160a01b038281166000908152602081905260409020541615610d9a5760405162461bcd60e51b81526004016105e390611fa9565b600060208190527fada5013122d395ba3c54772283fb069b10426056ef8ca54750cb9bb552a59e7d80546001600160a01b03858116808552604085208054929093166001600160a01b03199283161790925560018085528354909116909117909155805491610e0883612080565b90915550506040516001600160a01b03831681527f9465fa0c962cc76958e6373a993326400c1c94f8be2fe3a952adfa7f60b2ea269060200160405180910390a160025460ff828116911614610e6157610e6181610bed565b5050565b60006001600160a01b0382166001148015906105475750506001600160a01b0390811660009081526020819052604090205416151590565b610ea56117ac565b6001600160a01b03811615801590610ec657506001600160a01b0381163014155b8015610edc57506001600160a01b038116600114155b610f285760405162461bcd60e51b815260206004820152601960248201527f696e76616c6964206e6577206f776e657220616464726573730000000000000060448201526064016105e3565b6001600160a01b038181166000908152602081905260409020541615610f605760405162461bcd60e51b81526004016105e390611fa9565b6001600160a01b03821615801590610f8257506001600160a01b038216600114155b610fce5760405162461bcd60e51b815260206004820152601960248201527f696e76616c6964206f6c64206f776e657220616464726573730000000000000060448201526064016105e3565b6001600160a01b0383811660009081526020819052604090205481169083161461103a5760405162461bcd60e51b815260206004820152601e60248201527f6e6f7420636f72726573706f6e6420746f20746865206f6c644f776e6572000060448201526064016105e3565b6001600160a01b03828116600081815260208181526040808320805487871680865283862080549289166001600160a01b0319938416179055968a1685528285208054821690971790965592849052825490941690915591519081527ff8d49fc529812e9a7c5c50e69c20f0dccc0db8fa95c98bc58cc9a4f1c1299eaf910160405180910390a16040516001600160a01b03821681527f9465fa0c962cc76958e6373a993326400c1c94f8be2fe3a952adfa7f60b2ea269060200160405180910390a1505050565b60003361110e81610e65565b61112a5760405162461bcd60e51b81526004016105e390611f72565b60008381526004602090815260408083203380855292529091205484919060ff166111975760405162461bcd60e51b815260206004820152601f60248201527f6e6f74206265656e20617070726f7665642062792074686973206f776e65720060448201526064016105e3565b600085815260036020819052604090912001548590610100900460ff16156111fb5760405162461bcd60e51b81526020600482015260176024820152761d1c985b9cd858dd1a5bdb881a5cc8195e1958dd5d1959604a1b60448201526064016105e3565b611204866106bc565b1561135d576000868152600360205260409020805460018201546002830180546112d99360ff8116936101009091046001600160a01b031692909161124890612045565b80601f016020809104026020016040519081016040528092919081815260200182805461127490612045565b80156112c15780601f10611296576101008083540402835291602001916112c1565b820191906000526020600020905b8154815290600101906020018083116112a457829003601f168201915b50505050506109c45a6112d49190612011565b6117f2565b955085156113225760038101805461ff00191661010017905560405187907f15ed165a284872ea7017f03df402a0cadfbfab588320ffaf83f160c2f82781c790600090a261135b565b60038101805461ff001916905560405187907f492fd70ea712c765647b1676dbd9ea071e027174bc0cbbdb721f33658880271e90600090a25b505b50505050919050565b60025460ff16156113b95760405162461bcd60e51b815260206004820152601760248201527f63616e206f6e6c792062652063616c6c6564206f6e636500000000000000000060448201526064016105e3565b81518160ff16111561140d5760405162461bcd60e51b815260206004820152601d60248201527f7468726573686f6c64206973206d6f7265207468616e206f776e65727300000060448201526064016105e3565b60018160ff1610156114565760405162461bcd60e51b815260206004820152601260248201527130ba103632b0b9ba1037b7329037bbb732b960711b60448201526064016105e3565b600160005b83518110156115b157600084828151811061148657634e487b7160e01b600052603260045260246000fd5b6020026020010151905060006001600160a01b0316816001600160a01b0316141580156114bc57506001600160a01b0381163014155b80156114da5750826001600160a01b0316816001600160a01b031614155b80156114f057506001600160a01b038116600114155b6115385760405162461bcd60e51b81526020600482015260196024820152786e6f7420616c6c6f776564206f776e6572206164647265737360381b60448201526064016105e3565b6001600160a01b0381811660009081526020819052604090205416156115705760405162461bcd60e51b81526004016105e390611fa9565b6001600160a01b03928316600090815260208190526040902080546001600160a01b03191693821693909317909255806115a981612080565b91505061145b565b506001600160a01b03166000908152602081905260409020805460016001600160a01b0319909116811790915591519091556002805460ff191660ff909216919091179055565b6000836001600160a01b0381166116515760405162461bcd60e51b815260206004820152601c60248201527f746869732061646472657373206973207a65726f20616464726573730000000060448201526064016105e3565b6005805490600061166183612080565b9190505591506040518060c0016040528087600181111561169257634e487b7160e01b600052602160045260246000fd5b81526001600160a01b03871660208083019190915260408083018890526060830187905260006080840181905260a09093018390528583526003909152902081518154829060ff1916600183818111156116fc57634e487b7160e01b600052602160045260246000fd5b021790555060208281015182546001600160a01b0390911661010002610100600160a81b031990911617825560408301516001830155606083015180516117499260028501920190611845565b5060808201516003909101805460a09093015115156101000261ffff1990931660ff9092169190911791909117905560405182907fd0b5d9eac097410294ec9f2cee7cd185cf31ab46babf3dfdbeac8b222b03f2d190600090a250949350505050565b3330146117f05760405162461bcd60e51b81526020600482015260126024820152711c995c5d5a5c9959081cd95b198818d85b1b60721b60448201526064016105e3565b565b60008086600181111561181557634e487b7160e01b600052602160045260246000fd5b141561182f57600080845160208601878987f19050610556565b6000808451602086018886f49695505050505050565b82805461185190612045565b90600052602060002090601f01602090048101928261187357600085556118b9565b82601f1061188c57805160ff19168380011785556118b9565b828001600101855582156118b9579182015b828111156118b957825182559160200191906001019061189e565b506118c59291506118c9565b5090565b5b808211156118c557600081556001016118ca565b80356001600160a01b03811681146118f557600080fd5b919050565b60008083601f84011261190b578182fd5b50813567ffffffffffffffff811115611922578182fd5b6020830191508360208260051b850101111561193d57600080fd5b9250929050565b803580151581146118f557600080fd5b60008083601f840112611965578182fd5b50813567ffffffffffffffff81111561197c578182fd5b60208301915083602082850101111561193d57600080fd5b803560ff811681146118f557600080fd5b6000602082840312156119b6578081fd5b6119bf826118de565b9392505050565b6000806000606084860312156119da578182fd5b6119e3846118de565b92506119f1602085016118de565b91506119ff604085016118de565b90509250925092565b60008060008060008060008060c0898b031215611a23578384fd5b611a2c896118de565b9750611a3a60208a016118de565b9650611a4860408a016118de565b955060608901359450608089013567ffffffffffffffff80821115611a6b578586fd5b611a778c838d01611954565b909650945060a08b0135915080821115611a8f578384fd5b50611a9c8b828c01611954565b999c989b5096995094979396929594505050565b60008060008060008060008060a0898b031215611acb578384fd5b611ad4896118de565b9750611ae260208a016118de565b9650604089013567ffffffffffffffff80821115611afe578586fd5b611b0a8c838d016118fa565b909850965060608b0135915080821115611b22578586fd5b611b2e8c838d016118fa565b909650945060808b0135915080821115611a8f578384fd5b600080600080600060808688031215611b5d578081fd5b611b66866118de565b9450611b74602087016118de565b935060408601359250606086013567ffffffffffffffff811115611b96578182fd5b611ba288828901611954565b969995985093965092949392505050565b60008060008060008060a08789031215611bcb578182fd5b611bd4876118de565b9550611be2602088016118de565b94506040870135935060608701359250608087013567ffffffffffffffff811115611c0b578283fd5b611c1789828a01611954565b979a9699509497509295939492505050565b60008060408385031215611c3b578182fd5b611c44836118de565b9150611c5260208401611994565b90509250929050565b60008060408385031215611c6d578182fd5b823567ffffffffffffffff80821115611c84578384fd5b818501915085601f830112611c97578384fd5b8135602082821115611cab57611cab6120d1565b8160051b9250611cbc818401611fe0565b8281528181019085830185870184018b1015611cd6578889fd5b8896505b84871015611cff57611ceb816118de565b835260019690960195918301918301611cda565b509650611d0f9050878201611994565b9450505050509250929050565b60008060408385031215611d2e578182fd5b611d3783611944565b9150611c5260208401611944565b600060208284031215611d56578081fd5b81356001600160e01b0319811681146119bf578182fd5b60008060008060808587031215611d82578182fd5b843560028110611d90578283fd5b93506020611d9f8682016118de565b935060408601359250606086013567ffffffffffffffff80821115611dc2578384fd5b818801915088601f830112611dd5578384fd5b813581811115611de757611de76120d1565b611df9601f8201601f19168501611fe0565b91508082528984828501011115611e0e578485fd5b8084840185840137810190920192909252939692955090935050565b600060208284031215611e3b578081fd5b5035919050565b60008060408385031215611e54578182fd5b82359150611c52602084016118de565b600060208284031215611e75578081fd5b6119bf82611994565b6020808252825182820181905260009190848201906040850190845b81811015611ebf5783516001600160a01b031683529284019291840191600101611e9a565b50909695505050505050565b600060028810611ee957634e487b7160e01b81526021600452602481fd5b878252602060018060a01b0388168184015286604084015260c0606084015285518060c0850152825b81811015611f2e5787810183015185820160e001528201611f12565b81811115611f3f578360e083870101525b50601f01601f1916830160e0019150611f5f9050608083018560ff169052565b82151560a0830152979650505050505050565b60208082526018908201527f6973206e6f74206f6e65206f6620746865206f776e6572730000000000000000604082015260600190565b60208082526017908201527f6475706c6963617465206f776e65722061646472657373000000000000000000604082015260600190565b604051601f8201601f1916810167ffffffffffffffff81118282101715612009576120096120d1565b604052919050565b600082821015612023576120236120bb565b500390565b600060ff82168061203b5761203b6120bb565b6000190192915050565b600181811c9082168061205957607f821691505b6020821081141561207a57634e487b7160e01b600052602260045260246000fd5b50919050565b6000600019821415612094576120946120bb565b5060010190565b600060ff821660ff8114156120b2576120b26120bb565b60010192915050565b634e487b7160e01b600052601160045260246000fd5b634e487b7160e01b600052604160045260246000fdfea26469706673582212206fbbdfbbc795f3a2d4059114ebf4ea4ffbe0204f9bf46944fe1604bb09ee272f64736f6c63430008040033608060405234801561001057600080fd5b5060405161050a38038061050a83398101604081905261002f91610148565b61003833610047565b61004181610097565b50610176565b600080546001600160a01b038381166001600160a01b0319831681178455604051919092169283917f8be0079c531659141344cd1fd0a4f28419497f9722a3daafe3b4186f6b6457e09190a35050565b6100aa8161014260201b61020a1760201c565b6101205760405162461bcd60e51b815260206004820152603360248201527f5570677261646561626c65426561636f6e3a20696d706c656d656e746174696f60448201527f6e206973206e6f74206120636f6e747261637400000000000000000000000000606482015260840160405180910390fd5b600180546001600160a01b0319166001600160a01b0392909216919091179055565b3b151590565b600060208284031215610159578081fd5b81516001600160a01b038116811461016f578182fd5b9392505050565b610385806101856000396000f3fe608060405234801561001057600080fd5b50600436106100575760003560e01c80633659cfe61461005c5780635c60da1b14610071578063715018a61461009a5780638da5cb5b146100a2578063f2fde38b146100b3575b600080fd5b61006f61006a3660046102ec565b6100c6565b005b6001546001600160a01b03165b6040516001600160a01b03909116815260200160405180910390f35b61006f610139565b6000546001600160a01b031661007e565b61006f6100c13660046102ec565b61016f565b6000546001600160a01b031633146100f95760405162461bcd60e51b81526004016100f09061031a565b60405180910390fd5b61010281610210565b6040516001600160a01b038216907fbc7cd75a20ee27fd9adebab32041f755214dbc6bffa90cc0225b39da2e5c2d3b90600090a250565b6000546001600160a01b031633146101635760405162461bcd60e51b81526004016100f09061031a565b61016d600061029c565b565b6000546001600160a01b031633146101995760405162461bcd60e51b81526004016100f09061031a565b6001600160a01b0381166101fe5760405162461bcd60e51b815260206004820152602660248201527f4f776e61626c653a206e6577206f776e657220697320746865207a65726f206160448201526564647265737360d01b60648201526084016100f0565b6102078161029c565b50565b3b151590565b803b61027a5760405162461bcd60e51b815260206004820152603360248201527f5570677261646561626c65426561636f6e3a20696d706c656d656e746174696f6044820152721b881a5cc81b9bdd08184818dbdb9d1c9858dd606a1b60648201526084016100f0565b600180546001600160a01b0319166001600160a01b0392909216919091179055565b600080546001600160a01b038381166001600160a01b0319831681178455604051919092169283917f8be0079c531659141344cd1fd0a4f28419497f9722a3daafe3b4186f6b6457e09190a35050565b6000602082840312156102fd578081fd5b81356001600160a01b0381168114610313578182fd5b9392505050565b6020808252818101527f4f776e61626c653a2063616c6c6572206973206e6f7420746865206f776e657260408201526060019056fea2646970667358221220d17d669c05a71cac6423203ce4ae8e5487006a072696fd6ab4fc9340677ee7b164736f6c63430008040033",
  "devdoc": {
    "kind": "dev",
    "methods": {
      "createWallet(address[],uint8)": {
        "details": "Allows verified creation of multisignature wallet.",
        "params": {
          "_owners": "List of initial owners.",
          "_required": "Number of required confirmations."
        },
        "returns": {
          "wallet": "Returns wallet address."
        }
      },
      "createWallet(bytes)": {
        "details": "Allows verified creation of multisignature wallet.",
        "params": {
          "data": "data payload for initialize a wallet."
        },
        "returns": {
          "wallet": "Returns wallet address."
        }
      }
    },
    "title": "Multi signature wallet factory - Allows creation of multisig wallet.",
    "version": 1
  },
  "userdoc": {
    "kind": "user",
    "methods": {},
    "version": 1
  },
  "storageLayout": {
    "storage": [
      {
        "astId": 1722,
        "contract": "contracts/MultiSigWalletFactory.sol:MultiSigWalletFactory",
        "label": "wallets",
        "offset": 0,
        "slot": "0",
        "type": "t_array(t_address)dyn_storage"
      }
    ],
    "types": {
      "t_address": {
        "encoding": "inplace",
        "label": "address",
        "numberOfBytes": "20"
      },
      "t_array(t_address)dyn_storage": {
        "base": "t_address",
        "encoding": "dynamic_array",
        "label": "address[]",
        "numberOfBytes": "32"
      }
    }
  }
}